{
  "contractName": "Market",
  "abi": [
    {
      "anonymous": false,
      "inputs": [
        {
          "indexed": true,
          "internalType": "address",
          "name": "owner",
          "type": "address"
        },
        {
          "indexed": true,
          "internalType": "address",
          "name": "spender",
          "type": "address"
        },
        {
          "indexed": false,
          "internalType": "uint256",
          "name": "value",
          "type": "uint256"
        }
      ],
      "name": "Approval",
      "type": "event"
    },
    {
      "anonymous": false,
      "inputs": [
        {
          "indexed": false,
          "internalType": "string",
          "name": "name",
          "type": "string"
        }
      ],
      "name": "NewToken",
      "type": "event"
    },
    {
      "anonymous": false,
      "inputs": [
        {
          "indexed": true,
          "internalType": "address",
          "name": "previousOwner",
          "type": "address"
        },
        {
          "indexed": true,
          "internalType": "address",
          "name": "newOwner",
          "type": "address"
        }
      ],
      "name": "OwnershipTransferred",
      "type": "event"
    },
    {
      "anonymous": false,
      "inputs": [
        {
          "indexed": true,
          "internalType": "address",
          "name": "from",
          "type": "address"
        },
        {
          "indexed": true,
          "internalType": "address",
          "name": "to",
          "type": "address"
        },
        {
          "indexed": false,
          "internalType": "uint256",
          "name": "value",
          "type": "uint256"
        }
      ],
      "name": "Transfer",
      "type": "event"
    },
    {
      "anonymous": false,
      "inputs": [
        {
          "indexed": false,
          "internalType": "address",
          "name": "_from",
          "type": "address"
        },
        {
          "indexed": false,
          "internalType": "address",
          "name": "_to",
          "type": "address"
        },
        {
          "indexed": false,
          "internalType": "string",
          "name": "_nameToken",
          "type": "string"
        }
      ],
      "name": "TransferToken",
      "type": "event"
    },
    {
      "constant": true,
      "inputs": [
        {
          "internalType": "address",
          "name": "owner",
          "type": "address"
        },
        {
          "internalType": "address",
          "name": "spender",
          "type": "address"
        }
      ],
      "name": "allowance",
      "outputs": [
        {
          "internalType": "uint256",
          "name": "",
          "type": "uint256"
        }
      ],
      "payable": false,
      "stateMutability": "view",
      "type": "function"
    },
    {
      "constant": false,
      "inputs": [
        {
          "internalType": "address",
          "name": "spender",
          "type": "address"
        },
        {
          "internalType": "uint256",
          "name": "amount",
          "type": "uint256"
        }
      ],
      "name": "approve",
      "outputs": [
        {
          "internalType": "bool",
          "name": "",
          "type": "bool"
        }
      ],
      "payable": false,
      "stateMutability": "nonpayable",
      "type": "function"
    },
    {
      "constant": true,
      "inputs": [
        {
          "internalType": "address",
          "name": "account",
          "type": "address"
        }
      ],
      "name": "balanceOf",
      "outputs": [
        {
          "internalType": "uint256",
          "name": "",
          "type": "uint256"
        }
      ],
      "payable": false,
      "stateMutability": "view",
      "type": "function"
    },
    {
      "constant": false,
      "inputs": [
        {
          "internalType": "address",
          "name": "spender",
          "type": "address"
        },
        {
          "internalType": "uint256",
          "name": "subtractedValue",
          "type": "uint256"
        }
      ],
      "name": "decreaseAllowance",
      "outputs": [
        {
          "internalType": "bool",
          "name": "",
          "type": "bool"
        }
      ],
      "payable": false,
      "stateMutability": "nonpayable",
      "type": "function"
    },
    {
      "constant": false,
      "inputs": [
        {
          "internalType": "address",
          "name": "spender",
          "type": "address"
        },
        {
          "internalType": "uint256",
          "name": "addedValue",
          "type": "uint256"
        }
      ],
      "name": "increaseAllowance",
      "outputs": [
        {
          "internalType": "bool",
          "name": "",
          "type": "bool"
        }
      ],
      "payable": false,
      "stateMutability": "nonpayable",
      "type": "function"
    },
    {
      "constant": true,
      "inputs": [],
      "name": "isOwner",
      "outputs": [
        {
          "internalType": "bool",
          "name": "",
          "type": "bool"
        }
      ],
      "payable": false,
      "stateMutability": "view",
      "type": "function"
    },
    {
      "constant": true,
      "inputs": [],
      "name": "owner",
      "outputs": [
        {
          "internalType": "address",
          "name": "",
          "type": "address"
        }
      ],
      "payable": false,
      "stateMutability": "view",
      "type": "function"
    },
    {
      "constant": false,
      "inputs": [],
      "name": "renounceOwnership",
      "outputs": [],
      "payable": false,
      "stateMutability": "nonpayable",
      "type": "function"
    },
    {
      "constant": true,
      "inputs": [
        {
          "internalType": "string",
          "name": "",
          "type": "string"
        }
      ],
      "name": "tokenMap",
      "outputs": [
        {
          "internalType": "contract Token",
          "name": "",
          "type": "address"
        }
      ],
      "payable": false,
      "stateMutability": "view",
      "type": "function"
    },
    {
      "constant": true,
      "inputs": [],
      "name": "totalSupply",
      "outputs": [
        {
          "internalType": "uint256",
          "name": "",
          "type": "uint256"
        }
      ],
      "payable": false,
      "stateMutability": "view",
      "type": "function"
    },
    {
      "constant": true,
      "inputs": [
        {
          "internalType": "address",
          "name": "",
          "type": "address"
        },
        {
          "internalType": "string",
          "name": "",
          "type": "string"
        }
      ],
      "name": "traiderCountToken",
      "outputs": [
        {
          "internalType": "uint256",
          "name": "",
          "type": "uint256"
        }
      ],
      "payable": false,
      "stateMutability": "view",
      "type": "function"
    },
    {
      "constant": false,
      "inputs": [
        {
          "internalType": "address",
          "name": "recipient",
          "type": "address"
        },
        {
          "internalType": "uint256",
          "name": "amount",
          "type": "uint256"
        }
      ],
      "name": "transfer",
      "outputs": [
        {
          "internalType": "bool",
          "name": "",
          "type": "bool"
        }
      ],
      "payable": false,
      "stateMutability": "nonpayable",
      "type": "function"
    },
    {
      "constant": false,
      "inputs": [
        {
          "internalType": "address",
          "name": "sender",
          "type": "address"
        },
        {
          "internalType": "address",
          "name": "recipient",
          "type": "address"
        },
        {
          "internalType": "uint256",
          "name": "amount",
          "type": "uint256"
        }
      ],
      "name": "transferFrom",
      "outputs": [
        {
          "internalType": "bool",
          "name": "",
          "type": "bool"
        }
      ],
      "payable": false,
      "stateMutability": "nonpayable",
      "type": "function"
    },
    {
      "constant": false,
      "inputs": [
        {
          "internalType": "address",
          "name": "newOwner",
          "type": "address"
        }
      ],
      "name": "transferOwnership",
      "outputs": [],
      "payable": false,
      "stateMutability": "nonpayable",
      "type": "function"
    },
    {
      "constant": false,
      "inputs": [
        {
          "internalType": "string",
          "name": "_name",
          "type": "string"
        },
        {
          "internalType": "string",
          "name": "_description",
          "type": "string"
        },
        {
          "internalType": "uint256",
          "name": "_price",
          "type": "uint256"
        },
        {
          "internalType": "uint256",
          "name": "_totalToken",
          "type": "uint256"
        }
      ],
      "name": "createTokenMarket",
      "outputs": [],
      "payable": false,
      "stateMutability": "nonpayable",
      "type": "function"
    },
    {
      "constant": true,
      "inputs": [
        {
          "internalType": "string",
          "name": "_name",
          "type": "string"
        }
      ],
      "name": "getPrice",
      "outputs": [
        {
          "internalType": "uint256",
          "name": "",
          "type": "uint256"
        }
      ],
      "payable": false,
      "stateMutability": "view",
      "type": "function"
    },
    {
      "constant": true,
      "inputs": [
        {
          "internalType": "string",
          "name": "_name",
          "type": "string"
        }
      ],
      "name": "getDescriptionToken",
      "outputs": [
        {
          "internalType": "string",
          "name": "",
          "type": "string"
        }
      ],
      "payable": false,
      "stateMutability": "view",
      "type": "function"
    },
    {
      "constant": true,
      "inputs": [
        {
          "internalType": "string",
          "name": "_name",
          "type": "string"
        }
      ],
      "name": "getAvailableQuantityToken",
      "outputs": [
        {
          "internalType": "uint256",
          "name": "",
          "type": "uint256"
        }
      ],
      "payable": false,
      "stateMutability": "view",
      "type": "function"
    },
    {
      "constant": false,
      "inputs": [
        {
          "internalType": "string",
          "name": "_nameToken",
          "type": "string"
        },
        {
          "internalType": "uint256",
          "name": "_countToken",
          "type": "uint256"
        }
      ],
      "name": "traiderBuyToken",
      "outputs": [],
      "payable": true,
      "stateMutability": "payable",
      "type": "function"
    },
    {
      "constant": false,
      "inputs": [
        {
          "internalType": "string",
          "name": "_nameToken",
          "type": "string"
        },
        {
          "internalType": "uint256",
          "name": "_countToken",
          "type": "uint256"
        }
      ],
      "name": "traiderSellToken",
      "outputs": [],
      "payable": true,
      "stateMutability": "payable",
      "type": "function"
    }
  ],
  "bytecode": "0x60806040526100126100d260201b60201c565b6000806101000a81548173ffffffffffffffffffffffffffffffffffffffff021916908373ffffffffffffffffffffffffffffffffffffffff1602179055506000809054906101000a900473ffffffffffffffffffffffffffffffffffffffff1673ffffffffffffffffffffffffffffffffffffffff16600073ffffffffffffffffffffffffffffffffffffffff167f8be0079c531659141344cd1fd0a4f28419497f9722a3daafe3b4186f6b6457e060405160405180910390a36100da565b600033905090565b614a7a80620000ea6000396000f3fe6080604052600436106200013a5760003560e01c80638f32d59b11620000af578063ccd1efc3116200006d578063ccd1efc31462000a00578063d756b7671462000b4b578063dd62ed3e1462000c16578063f2fde38b1462000c9f578063f55c2ef01462000cf4576200013a565b80638f32d59b1462000712578063924a0dc61462000744578063a457c2d7146200080f578063a9059cbb1462000886578063c717131814620008fd576200013a565b8063524f388911620000fd578063524f388914620003d55780635723633f14620004b857806370a082311462000635578063715018a6146200069e5780638da5cb5b14620006b8576200013a565b8063095ea7b3146200013f57806318160ddd14620001b657806323b872dd14620001e4578063389787a1146200027b57806339509351146200035e575b600080fd5b3480156200014c57600080fd5b506200019c600480360360408110156200016557600080fd5b81019080803573ffffffffffffffffffffffffffffffffffffffff1690602001909291908035906020019092919050505062000e03565b604051808215151515815260200191505060405180910390f35b348015620001c357600080fd5b50620001ce62000e25565b6040518082815260200191505060405180910390f35b348015620001f157600080fd5b5062000261600480360360608110156200020a57600080fd5b81019080803573ffffffffffffffffffffffffffffffffffffffff169060200190929190803573ffffffffffffffffffffffffffffffffffffffff1690602001909291908035906020019092919050505062000e2f565b604051808215151515815260200191505060405180910390f35b3480156200028857600080fd5b506200034860048036036020811015620002a157600080fd5b8101908080359060200190640100000000811115620002bf57600080fd5b820183602082011115620002d257600080fd5b80359060200191846001830284011164010000000083111715620002f557600080fd5b91908080601f016020809104026020016040519081016040528093929190818152602001838380828437600081840152601f19601f82011690508083019250505050505050919291929050505062000f13565b6040518082815260200191505060405180910390f35b3480156200036b57600080fd5b50620003bb600480360360408110156200038457600080fd5b81019080803573ffffffffffffffffffffffffffffffffffffffff169060200190929190803590602001909291905050506200109d565b604051808215151515815260200191505060405180910390f35b348015620003e257600080fd5b50620004a260048036036020811015620003fb57600080fd5b81019080803590602001906401000000008111156200041957600080fd5b8201836020820111156200042c57600080fd5b803590602001918460018302840111640100000000831117156200044f57600080fd5b91908080601f016020809104026020016040519081016040528093929190818152602001838380828437600081840152601f19601f82011690508083019250505050505050919291929050505062001158565b6040518082815260200191505060405180910390f35b348015620004c557600080fd5b506200063360048036036080811015620004de57600080fd5b8101908080359060200190640100000000811115620004fc57600080fd5b8201836020820111156200050f57600080fd5b803590602001918460018302840111640100000000831117156200053257600080fd5b91908080601f016020809104026020016040519081016040528093929190818152602001838380828437600081840152601f19601f820116905080830192505050505050509192919290803590602001906401000000008111156200059657600080fd5b820183602082011115620005a957600080fd5b80359060200191846001830284011164010000000083111715620005cc57600080fd5b91908080601f016020809104026020016040519081016040528093929190818152602001838380828437600081840152601f19601f820116905080830192505050505050509192919290803590602001909291908035906020019092919050505062001385565b005b3480156200064257600080fd5b5062000688600480360360208110156200065b57600080fd5b81019080803573ffffffffffffffffffffffffffffffffffffffff16906020019092919050505062001761565b6040518082815260200191505060405180910390f35b348015620006ab57600080fd5b50620006b6620017aa565b005b348015620006c557600080fd5b50620006d0620018e6565b604051808273ffffffffffffffffffffffffffffffffffffffff1673ffffffffffffffffffffffffffffffffffffffff16815260200191505060405180910390f35b3480156200071f57600080fd5b506200072a6200190f565b604051808215151515815260200191505060405180910390f35b6200080d600480360360408110156200075c57600080fd5b81019080803590602001906401000000008111156200077a57600080fd5b8201836020820111156200078d57600080fd5b80359060200191846001830284011164010000000083111715620007b057600080fd5b91908080601f016020809104026020016040519081016040528093929190818152602001838380828437600081840152601f19601f820116905080830192505050505050509192919290803590602001909291905050506200196f565b005b3480156200081c57600080fd5b506200086c600480360360408110156200083557600080fd5b81019080803573ffffffffffffffffffffffffffffffffffffffff1690602001909291908035906020019092919050505062001e13565b604051808215151515815260200191505060405180910390f35b3480156200089357600080fd5b50620008e360048036036040811015620008ac57600080fd5b81019080803573ffffffffffffffffffffffffffffffffffffffff1690602001909291908035906020019092919050505062001ee9565b604051808215151515815260200191505060405180910390f35b3480156200090a57600080fd5b50620009ea600480360360408110156200092357600080fd5b81019080803573ffffffffffffffffffffffffffffffffffffffff169060200190929190803590602001906401000000008111156200096157600080fd5b8201836020820111156200097457600080fd5b803590602001918460018302840111640100000000831117156200099757600080fd5b91908080601f016020809104026020016040519081016040528093929190818152602001838380828437600081840152601f19601f82011690508083019250505050505050919291929050505062001f0b565b6040518082815260200191505060405180910390f35b34801562000a0d57600080fd5b5062000acd6004803603602081101562000a2657600080fd5b810190808035906020019064010000000081111562000a4457600080fd5b82018360208201111562000a5757600080fd5b8035906020019184600183028401116401000000008311171562000a7a57600080fd5b91908080601f016020809104026020016040519081016040528093929190818152602001838380828437600081840152601f19601f82011690508083019250505050505050919291929050505062001f46565b6040518080602001828103825283818151815260200191508051906020019080838360005b8381101562000b0f57808201518184015260208101905062000af2565b50505050905090810190601f16801562000b3d5780820380516001836020036101000a031916815260200191505b509250505060405180910390f35b62000c146004803603604081101562000b6357600080fd5b810190808035906020019064010000000081111562000b8157600080fd5b82018360208201111562000b9457600080fd5b8035906020019184600183028401116401000000008311171562000bb757600080fd5b91908080601f016020809104026020016040519081016040528093929190818152602001838380828437600081840152601f19601f8201169050808301925050505050505091929192908035906020019092919050505062002237565b005b34801562000c2357600080fd5b5062000c896004803603604081101562000c3c57600080fd5b81019080803573ffffffffffffffffffffffffffffffffffffffff169060200190929190803573ffffffffffffffffffffffffffffffffffffffff169060200190929190505050620026c7565b6040518082815260200191505060405180910390f35b34801562000cac57600080fd5b5062000cf26004803603602081101562000cc557600080fd5b81019080803573ffffffffffffffffffffffffffffffffffffffff1690602001909291905050506200274e565b005b34801562000d0157600080fd5b5062000dc16004803603602081101562000d1a57600080fd5b810190808035906020019064010000000081111562000d3857600080fd5b82018360208201111562000d4b57600080fd5b8035906020019184600183028401116401000000008311171562000d6e57600080fd5b91908080601f016020809104026020016040519081016040528093929190818152602001838380828437600081840152601f19601f820116905080830192505050505050509192919290505050620027d9565b604051808273ffffffffffffffffffffffffffffffffffffffff1673ffffffffffffffffffffffffffffffffffffffff16815260200191505060405180910390f35b600062000e1b62000e1362002822565b84846200282a565b6001905092915050565b6000600354905090565b600062000e3e84848462002a25565b62000f088462000e4d62002822565b62000f02856040518060600160405280602881526020016200497a60289139600260008b73ffffffffffffffffffffffffffffffffffffffff1673ffffffffffffffffffffffffffffffffffffffff168152602001908152602001600020600062000eb762002822565b73ffffffffffffffffffffffffffffffffffffffff1673ffffffffffffffffffffffffffffffffffffffff1681526020019081526020016000205462002ce89092919063ffffffff16565b6200282a565b600190509392505050565b600081600073ffffffffffffffffffffffffffffffffffffffff166004826040518082805190602001908083835b6020831062000f66578051825260208201915060208101905060208303925062000f41565b6001836020036101000a038019825116818451168082178552505050505050905001915050908152602001604051809103902060009054906101000a900473ffffffffffffffffffffffffffffffffffffffff1673ffffffffffffffffffffffffffffffffffffffff16141562001029576040517f08c379a00000000000000000000000000000000000000000000000000000000081526004018080602001828103825260228152602001806200488d6022913960400191505060405180910390fd5b6005836040518082805190602001908083835b602083106200106157805182526020820191506020810190506020830392506200103c565b6001836020036101000a038019825116818451168082178552505050505050905001915050908152602001604051809103902054915050919050565b60006200114e620010ad62002822565b84620011488560026000620010c162002822565b73ffffffffffffffffffffffffffffffffffffffff1673ffffffffffffffffffffffffffffffffffffffff16815260200190815260200160002060008973ffffffffffffffffffffffffffffffffffffffff1673ffffffffffffffffffffffffffffffffffffffff1681526020019081526020016000205462002dac90919063ffffffff16565b6200282a565b6001905092915050565b600081600073ffffffffffffffffffffffffffffffffffffffff166004826040518082805190602001908083835b60208310620011ab578051825260208201915060208101905060208303925062001186565b6001836020036101000a038019825116818451168082178552505050505050905001915050908152602001604051809103902060009054906101000a900473ffffffffffffffffffffffffffffffffffffffff1673ffffffffffffffffffffffffffffffffffffffff1614156200126e576040517f08c379a00000000000000000000000000000000000000000000000000000000081526004018080602001828103825260228152602001806200488d6022913960400191505060405180910390fd5b6004836040518082805190602001908083835b60208310620012a6578051825260208201915060208101905060208303925062001281565b6001836020036101000a038019825116818451168082178552505050505050905001915050908152602001604051809103902060009054906101000a900473ffffffffffffffffffffffffffffffffffffffff1673ffffffffffffffffffffffffffffffffffffffff16637ff9b5966040518163ffffffff1660e01b815260040160206040518083038186803b1580156200134057600080fd5b505afa15801562001355573d6000803e3d6000fd5b505050506040513d60208110156200136c57600080fd5b8101908080519060200190929190505050915050919050565b600084848484604051620013999062003238565b808060200180602001858152602001848152602001838103835287818151815260200191508051906020019080838360005b83811015620013e8578082015181840152602081019050620013cb565b50505050905090810190601f168015620014165780820380516001836020036101000a031916815260200191505b50838103825286818151815260200191508051906020019080838360005b838110156200145157808201518184015260208101905062001434565b50505050905090810190601f1680156200147f5780820380516001836020036101000a031916815260200191505b509650505050505050604051809103906000f080158015620014a5573d6000803e3d6000fd5b509050806004866040518082805190602001908083835b60208310620014e15780518252602082019150602081019050602083039250620014bc565b6001836020036101000a038019825116818451168082178552505050505050905001915050908152602001604051809103902060006101000a81548173ffffffffffffffffffffffffffffffffffffffff021916908373ffffffffffffffffffffffffffffffffffffffff1602179055506200160f82600660003373ffffffffffffffffffffffffffffffffffffffff1673ffffffffffffffffffffffffffffffffffffffff168152602001908152602001600020876040518082805190602001908083835b60208310620015cc5780518252602082019150602081019050602083039250620015a7565b6001836020036101000a03801982511681845116808217855250505050505090500191505090815260200160405180910390205462002dac90919063ffffffff16565b600660003373ffffffffffffffffffffffffffffffffffffffff1673ffffffffffffffffffffffffffffffffffffffff168152602001908152602001600020866040518082805190602001908083835b602083106200168457805182526020820191506020810190506020830392506200165f565b6001836020036101000a0380198251168184511680821785525050505050509050019150509081526020016040518091039020819055507fbcf094e2266ddf1f1eb3b56b5d8586639fe7a06868a641c49f7e9731cb2b48c7856040518080602001828103825283818151815260200191508051906020019080838360005b838110156200171f57808201518184015260208101905062001702565b50505050905090810190601f1680156200174d5780820380516001836020036101000a031916815260200191505b509250505060405180910390a15050505050565b6000600160008373ffffffffffffffffffffffffffffffffffffffff1673ffffffffffffffffffffffffffffffffffffffff168152602001908152602001600020549050919050565b620017b46200190f565b62001827576040517f08c379a00000000000000000000000000000000000000000000000000000000081526004018080602001828103825260208152602001807f4f776e61626c653a2063616c6c6572206973206e6f7420746865206f776e657281525060200191505060405180910390fd5b600073ffffffffffffffffffffffffffffffffffffffff166000809054906101000a900473ffffffffffffffffffffffffffffffffffffffff1673ffffffffffffffffffffffffffffffffffffffff167f8be0079c531659141344cd1fd0a4f28419497f9722a3daafe3b4186f6b6457e060405160405180910390a360008060006101000a81548173ffffffffffffffffffffffffffffffffffffffff021916908373ffffffffffffffffffffffffffffffffffffffff160217905550565b60008060009054906101000a900473ffffffffffffffffffffffffffffffffffffffff16905090565b60008060009054906101000a900473ffffffffffffffffffffffffffffffffffffffff1673ffffffffffffffffffffffffffffffffffffffff166200195362002822565b73ffffffffffffffffffffffffffffffffffffffff1614905090565b80600660003373ffffffffffffffffffffffffffffffffffffffff1673ffffffffffffffffffffffffffffffffffffffff168152602001908152602001600020836040518082805190602001908083835b60208310620019e55780518252602082019150602081019050602083039250620019c0565b6001836020036101000a038019825116818451168082178552505050505050905001915050908152602001604051809103902054101562001a72576040517f08c379a000000000000000000000000000000000000000000000000000000000815260040180806020018281038252603c8152602001806200491d603c913960400191505060405180910390fd5b62001b2f81600660003373ffffffffffffffffffffffffffffffffffffffff1673ffffffffffffffffffffffffffffffffffffffff168152602001908152602001600020846040518082805190602001908083835b6020831062001aec578051825260208201915060208101905060208303925062001ac7565b6001836020036101000a03801982511681845116808217855250505050505090500191505090815260200160405180910390205462002e3590919063ffffffff16565b600660003373ffffffffffffffffffffffffffffffffffffffff1673ffffffffffffffffffffffffffffffffffffffff168152602001908152602001600020836040518082805190602001908083835b6020831062001ba4578051825260208201915060208101905060208303925062001b7f565b6001836020036101000a038019825116818451168082178552505050505050905001915050908152602001604051809103902081905550600062001bfc8262001bed8562001158565b62002e8190919063ffffffff16565b90506004836040518082805190602001908083835b6020831062001c36578051825260208201915060208101905060208303925062001c11565b6001836020036101000a038019825116818451168082178552505050505050905001915050908152602001604051809103902060009054906101000a900473ffffffffffffffffffffffffffffffffffffffff1673ffffffffffffffffffffffffffffffffffffffff166323b872dd3330856040518463ffffffff1660e01b8152600401808473ffffffffffffffffffffffffffffffffffffffff1673ffffffffffffffffffffffffffffffffffffffff1681526020018373ffffffffffffffffffffffffffffffffffffffff1673ffffffffffffffffffffffffffffffffffffffff1681526020018281526020019350505050602060405180830381600087803b15801562001d4557600080fd5b505af115801562001d5a573d6000803e3d6000fd5b505050506040513d602081101562001d7157600080fd5b810190808051906020019092919050505062001df5576040517f08c379a00000000000000000000000000000000000000000000000000000000081526004018080602001828103825260198152602001807f4d61726b65743a207472616e73616374696f6e206572726f720000000000000081525060200191505060405180910390fd5b62001e01838362002f0c565b62001e0d338262001ee9565b50505050565b600062001edf62001e2362002822565b8462001ed98560405180606001604052806025815260200162004a21602591396002600062001e5162002822565b73ffffffffffffffffffffffffffffffffffffffff1673ffffffffffffffffffffffffffffffffffffffff16815260200190815260200160002060008a73ffffffffffffffffffffffffffffffffffffffff1673ffffffffffffffffffffffffffffffffffffffff1681526020019081526020016000205462002ce89092919063ffffffff16565b6200282a565b6001905092915050565b600062001f0162001ef962002822565b848462002a25565b6001905092915050565b600660205281600052604060002081805160208101820180518482526020830160208501208183528095505050505050600091509150505481565b606081600073ffffffffffffffffffffffffffffffffffffffff166004826040518082805190602001908083835b6020831062001f99578051825260208201915060208101905060208303925062001f74565b6001836020036101000a038019825116818451168082178552505050505050905001915050908152602001604051809103902060009054906101000a900473ffffffffffffffffffffffffffffffffffffffff1673ffffffffffffffffffffffffffffffffffffffff1614156200205c576040517f08c379a00000000000000000000000000000000000000000000000000000000081526004018080602001828103825260228152602001806200488d6022913960400191505060405180910390fd5b6004836040518082805190602001908083835b602083106200209457805182526020820191506020810190506020830392506200206f565b6001836020036101000a038019825116818451168082178552505050505050905001915050908152602001604051809103902060009054906101000a900473ffffffffffffffffffffffffffffffffffffffff1673ffffffffffffffffffffffffffffffffffffffff16637284e4166040518163ffffffff1660e01b815260040160006040518083038186803b1580156200212e57600080fd5b505afa15801562002143573d6000803e3d6000fd5b505050506040513d6000823e3d601f19601f8201168201806040525060208110156200216e57600080fd5b81019080805160405193929190846401000000008211156200218f57600080fd5b83820191506020820185811115620021a657600080fd5b8251866001820283011164010000000082111715620021c457600080fd5b8083526020830192505050908051906020019080838360005b83811015620021fa578082015181840152602081019050620021dd565b50505050905090810190601f168015620022285780820380516001836020036101000a031916815260200191505b50604052505050915050919050565b80620022438362000f13565b10156200229c576040517f08c379a0000000000000000000000000000000000000000000000000000000008152600401808060200182810382526036815260200180620049a26036913960400191505060405180910390fd5b620022a73362001761565b620022c682620022b78562001158565b62002e8190919063ffffffff16565b11156200231f576040517f08c379a0000000000000000000000000000000000000000000000000000000008152600401808060200182810382526036815260200180620049a26036913960400191505060405180910390fd5b6004826040518082805190602001908083835b6020831062002357578051825260208201915060208101905060208303925062002332565b6001836020036101000a038019825116818451168082178552505050505050905001915050908152602001604051809103902060009054906101000a900473ffffffffffffffffffffffffffffffffffffffff1673ffffffffffffffffffffffffffffffffffffffff1663a9059cbb33836040518363ffffffff1660e01b8152600401808373ffffffffffffffffffffffffffffffffffffffff1673ffffffffffffffffffffffffffffffffffffffff16815260200182815260200192505050602060405180830381600087803b1580156200243257600080fd5b505af115801562002447573d6000803e3d6000fd5b505050506040513d60208110156200245e57600080fd5b8101908080519060200190929190505050620024e2576040517f08c379a00000000000000000000000000000000000000000000000000000000081526004018080602001828103825260198152602001807f4d61726b65743a207472616e73616374696f6e206572726f720000000000000081525060200191505060405180910390fd5b60006200250382620024f48562001158565b62002e8190919063ffffffff16565b90503373ffffffffffffffffffffffffffffffffffffffff166108fc829081150290604051600060405180830381858888f193505050501580156200254c573d6000803e3d6000fd5b5062002559838362002fff565b6200261682600660003373ffffffffffffffffffffffffffffffffffffffff1673ffffffffffffffffffffffffffffffffffffffff168152602001908152602001600020856040518082805190602001908083835b60208310620025d35780518252602082019150602081019050602083039250620025ae565b6001836020036101000a03801982511681845116808217855250505050505090500191505090815260200160405180910390205462002dac90919063ffffffff16565b600660003373ffffffffffffffffffffffffffffffffffffffff1673ffffffffffffffffffffffffffffffffffffffff168152602001908152602001600020846040518082805190602001908083835b602083106200268b578051825260208201915060208101905060208303925062002666565b6001836020036101000a038019825116818451168082178552505050505050905001915050908152602001604051809103902081905550505050565b6000600260008473ffffffffffffffffffffffffffffffffffffffff1673ffffffffffffffffffffffffffffffffffffffff16815260200190815260200160002060008373ffffffffffffffffffffffffffffffffffffffff1673ffffffffffffffffffffffffffffffffffffffff16815260200190815260200160002054905092915050565b620027586200190f565b620027cb576040517f08c379a00000000000000000000000000000000000000000000000000000000081526004018080602001828103825260208152602001807f4f776e61626c653a2063616c6c6572206973206e6f7420746865206f776e657281525060200191505060405180910390fd5b620027d681620030f2565b50565b6004818051602081018201805184825260208301602085012081835280955050505050506000915054906101000a900473ffffffffffffffffffffffffffffffffffffffff1681565b600033905090565b600073ffffffffffffffffffffffffffffffffffffffff168373ffffffffffffffffffffffffffffffffffffffff161415620028b2576040517f08c379a0000000000000000000000000000000000000000000000000000000008152600401808060200182810382526024815260200180620049fd6024913960400191505060405180910390fd5b600073ffffffffffffffffffffffffffffffffffffffff168273ffffffffffffffffffffffffffffffffffffffff1614156200293a576040517f08c379a0000000000000000000000000000000000000000000000000000000008152600401808060200182810382526022815260200180620048d56022913960400191505060405180910390fd5b80600260008573ffffffffffffffffffffffffffffffffffffffff1673ffffffffffffffffffffffffffffffffffffffff16815260200190815260200160002060008473ffffffffffffffffffffffffffffffffffffffff1673ffffffffffffffffffffffffffffffffffffffff168152602001908152602001600020819055508173ffffffffffffffffffffffffffffffffffffffff168373ffffffffffffffffffffffffffffffffffffffff167f8c5be1e5ebec7d5bd14f71427d1e84f3dd0314c0f7b2291e5b200ac8c7c3b925836040518082815260200191505060405180910390a3505050565b600073ffffffffffffffffffffffffffffffffffffffff168373ffffffffffffffffffffffffffffffffffffffff16141562002aad576040517f08c379a0000000000000000000000000000000000000000000000000000000008152600401808060200182810382526025815260200180620049d86025913960400191505060405180910390fd5b600073ffffffffffffffffffffffffffffffffffffffff168273ffffffffffffffffffffffffffffffffffffffff16141562002b35576040517f08c379a00000000000000000000000000000000000000000000000000000000081526004018080602001828103825260238152602001806200486a6023913960400191505060405180910390fd5b62002ba481604051806060016040528060268152602001620048f760269139600160008773ffffffffffffffffffffffffffffffffffffffff1673ffffffffffffffffffffffffffffffffffffffff1681526020019081526020016000205462002ce89092919063ffffffff16565b600160008573ffffffffffffffffffffffffffffffffffffffff1673ffffffffffffffffffffffffffffffffffffffff1681526020019081526020016000208190555062002c3b81600160008573ffffffffffffffffffffffffffffffffffffffff1673ffffffffffffffffffffffffffffffffffffffff1681526020019081526020016000205462002dac90919063ffffffff16565b600160008473ffffffffffffffffffffffffffffffffffffffff1673ffffffffffffffffffffffffffffffffffffffff168152602001908152602001600020819055508173ffffffffffffffffffffffffffffffffffffffff168373ffffffffffffffffffffffffffffffffffffffff167fddf252ad1be2c89b69c2b068fc378daa952ba7f163c4a11628f55a4df523b3ef836040518082815260200191505060405180910390a3505050565b600083831115829062002d99576040517f08c379a00000000000000000000000000000000000000000000000000000000081526004018080602001828103825283818151815260200191508051906020019080838360005b8381101562002d5d57808201518184015260208101905062002d40565b50505050905090810190601f16801562002d8b5780820380516001836020036101000a031916815260200191505b509250505060405180910390fd5b5060008385039050809150509392505050565b60008082840190508381101562002e2b576040517f08c379a000000000000000000000000000000000000000000000000000000000815260040180806020018281038252601b8152602001807f536166654d6174683a206164646974696f6e206f766572666c6f77000000000081525060200191505060405180910390fd5b8091505092915050565b600062002e7983836040518060400160405280601e81526020017f536166654d6174683a207375627472616374696f6e206f766572666c6f77000081525062002ce8565b905092915050565b60008083141562002e96576000905062002f06565b600082840290508284828162002ea857fe5b041462002f01576040517f08c379a0000000000000000000000000000000000000000000000000000000008152600401808060200182810382526021815260200180620049596021913960400191505060405180910390fd5b809150505b92915050565b62002f8c816005846040518082805190602001908083835b6020831062002f49578051825260208201915060208101905060208303925062002f24565b6001836020036101000a03801982511681845116808217855250505050505090500191505090815260200160405180910390205462002dac90919063ffffffff16565b6005836040518082805190602001908083835b6020831062002fc4578051825260208201915060208101905060208303925062002f9f565b6001836020036101000a0380198251168184511680821785525050505050509050019150509081526020016040518091039020819055505050565b6200307f816005846040518082805190602001908083835b602083106200303c578051825260208201915060208101905060208303925062003017565b6001836020036101000a03801982511681845116808217855250505050505090500191505090815260200160405180910390205462002e3590919063ffffffff16565b6005836040518082805190602001908083835b60208310620030b7578051825260208201915060208101905060208303925062003092565b6001836020036101000a0380198251168184511680821785525050505050509050019150509081526020016040518091039020819055505050565b600073ffffffffffffffffffffffffffffffffffffffff168173ffffffffffffffffffffffffffffffffffffffff1614156200317a576040517f08c379a0000000000000000000000000000000000000000000000000000000008152600401808060200182810382526026815260200180620048af6026913960400191505060405180910390fd5b8073ffffffffffffffffffffffffffffffffffffffff166000809054906101000a900473ffffffffffffffffffffffffffffffffffffffff1673ffffffffffffffffffffffffffffffffffffffff167f8be0079c531659141344cd1fd0a4f28419497f9722a3daafe3b4186f6b6457e060405160405180910390a3806000806101000a81548173ffffffffffffffffffffffffffffffffffffffff021916908373ffffffffffffffffffffffffffffffffffffffff16021790555050565b61162380620032478339019056fe60806040523480156200001157600080fd5b506040516200162338038062001623833981810160405260808110156200003757600080fd5b81019080805160405193929190846401000000008211156200005857600080fd5b838201915060208201858111156200006f57600080fd5b82518660018202830111640100000000821117156200008d57600080fd5b8083526020830192505050908051906020019080838360005b83811015620000c3578082015181840152602081019050620000a6565b50505050905090810190601f168015620000f15780820380516001836020036101000a031916815260200191505b50604052602001805160405193929190846401000000008211156200011557600080fd5b838201915060208201858111156200012c57600080fd5b82518660018202830111640100000000821117156200014a57600080fd5b8083526020830192505050908051906020019080838360005b838110156200018057808201518184015260208101905062000163565b50505050905090810190601f168015620001ae5780820380516001836020036101000a031916815260200191505b5060405260200180519060200190929190805190602001909291905050508360039080519060200190620001e492919062000474565b508260049080519060200190620001fd92919062000474565b50816005819055506200021733826200022160201b60201c565b5050505062000523565b600073ffffffffffffffffffffffffffffffffffffffff168273ffffffffffffffffffffffffffffffffffffffff161415620002c5576040517f08c379a000000000000000000000000000000000000000000000000000000000815260040180806020018281038252601f8152602001807f45524332303a206d696e7420746f20746865207a65726f20616464726573730081525060200191505060405180910390fd5b620002e181600254620003eb60201b62000f321790919060201c565b6002819055506200033f816000808573ffffffffffffffffffffffffffffffffffffffff1673ffffffffffffffffffffffffffffffffffffffff16815260200190815260200160002054620003eb60201b62000f321790919060201c565b6000808473ffffffffffffffffffffffffffffffffffffffff1673ffffffffffffffffffffffffffffffffffffffff168152602001908152602001600020819055508173ffffffffffffffffffffffffffffffffffffffff16600073ffffffffffffffffffffffffffffffffffffffff167fddf252ad1be2c89b69c2b068fc378daa952ba7f163c4a11628f55a4df523b3ef836040518082815260200191505060405180910390a35050565b6000808284019050838110156200046a576040517f08c379a000000000000000000000000000000000000000000000000000000000815260040180806020018281038252601b8152602001807f536166654d6174683a206164646974696f6e206f766572666c6f77000000000081525060200191505060405180910390fd5b8091505092915050565b828054600181600116156101000203166002900490600052602060002090601f016020900481019282601f10620004b757805160ff1916838001178555620004e8565b82800160010185558215620004e8579182015b82811115620004e7578251825591602001919060010190620004ca565b5b509050620004f79190620004fb565b5090565b6200052091905b808211156200051c57600081600090555060010162000502565b5090565b90565b6110f080620005336000396000f3fe608060405234801561001057600080fd5b50600436106100b45760003560e01c80637284e416116100715780637284e416146103045780637ff9b59614610387578063a457c2d7146103a5578063a9059cbb1461040b578063dd62ed3e14610471578063e088c9cd146104e9576100b4565b8063095ea7b3146100b957806318160ddd1461011f57806323b872dd1461013d57806339509351146101c35780636c02a9311461022957806370a08231146102ac575b600080fd5b610105600480360360408110156100cf57600080fd5b81019080803573ffffffffffffffffffffffffffffffffffffffff16906020019092919080359060200190929190505050610507565b604051808215151515815260200191505060405180910390f35b610127610525565b6040518082815260200191505060405180910390f35b6101a96004803603606081101561015357600080fd5b81019080803573ffffffffffffffffffffffffffffffffffffffff169060200190929190803573ffffffffffffffffffffffffffffffffffffffff1690602001909291908035906020019092919050505061052f565b604051808215151515815260200191505060405180910390f35b61020f600480360360408110156101d957600080fd5b81019080803573ffffffffffffffffffffffffffffffffffffffff16906020019092919080359060200190929190505050610608565b604051808215151515815260200191505060405180910390f35b6102316106bb565b6040518080602001828103825283818151815260200191508051906020019080838360005b83811015610271578082015181840152602081019050610256565b50505050905090810190601f16801561029e5780820380516001836020036101000a031916815260200191505b509250505060405180910390f35b6102ee600480360360208110156102c257600080fd5b81019080803573ffffffffffffffffffffffffffffffffffffffff169060200190929190505050610759565b6040518082815260200191505060405180910390f35b61030c6107a1565b6040518080602001828103825283818151815260200191508051906020019080838360005b8381101561034c578082015181840152602081019050610331565b50505050905090810190601f1680156103795780820380516001836020036101000a031916815260200191505b509250505060405180910390f35b61038f61083f565b6040518082815260200191505060405180910390f35b6103f1600480360360408110156103bb57600080fd5b81019080803573ffffffffffffffffffffffffffffffffffffffff16906020019092919080359060200190929190505050610845565b604051808215151515815260200191505060405180910390f35b6104576004803603604081101561042157600080fd5b81019080803573ffffffffffffffffffffffffffffffffffffffff16906020019092919080359060200190929190505050610912565b604051808215151515815260200191505060405180910390f35b6104d36004803603604081101561048757600080fd5b81019080803573ffffffffffffffffffffffffffffffffffffffff169060200190929190803573ffffffffffffffffffffffffffffffffffffffff169060200190929190505050610930565b6040518082815260200191505060405180910390f35b6104f16109b7565b6040518082815260200191505060405180910390f35b600061051b6105146109bd565b84846109c5565b6001905092915050565b6000600254905090565b600061053c848484610bbc565b6105fd846105486109bd565b6105f88560405180606001604052806028815260200161102660289139600160008b73ffffffffffffffffffffffffffffffffffffffff1673ffffffffffffffffffffffffffffffffffffffff16815260200190815260200160002060006105ae6109bd565b73ffffffffffffffffffffffffffffffffffffffff1673ffffffffffffffffffffffffffffffffffffffff16815260200190815260200160002054610e729092919063ffffffff16565b6109c5565b600190509392505050565b60006106b16106156109bd565b846106ac85600160006106266109bd565b73ffffffffffffffffffffffffffffffffffffffff1673ffffffffffffffffffffffffffffffffffffffff16815260200190815260200160002060008973ffffffffffffffffffffffffffffffffffffffff1673ffffffffffffffffffffffffffffffffffffffff16815260200190815260200160002054610f3290919063ffffffff16565b6109c5565b6001905092915050565b60038054600181600116156101000203166002900480601f0160208091040260200160405190810160405280929190818152602001828054600181600116156101000203166002900480156107515780601f1061072657610100808354040283529160200191610751565b820191906000526020600020905b81548152906001019060200180831161073457829003601f168201915b505050505081565b60008060008373ffffffffffffffffffffffffffffffffffffffff1673ffffffffffffffffffffffffffffffffffffffff168152602001908152602001600020549050919050565b60048054600181600116156101000203166002900480601f0160208091040260200160405190810160405280929190818152602001828054600181600116156101000203166002900480156108375780601f1061080c57610100808354040283529160200191610837565b820191906000526020600020905b81548152906001019060200180831161081a57829003601f168201915b505050505081565b60055481565b60006109086108526109bd565b8461090385604051806060016040528060258152602001611097602591396001600061087c6109bd565b73ffffffffffffffffffffffffffffffffffffffff1673ffffffffffffffffffffffffffffffffffffffff16815260200190815260200160002060008a73ffffffffffffffffffffffffffffffffffffffff1673ffffffffffffffffffffffffffffffffffffffff16815260200190815260200160002054610e729092919063ffffffff16565b6109c5565b6001905092915050565b600061092661091f6109bd565b8484610bbc565b6001905092915050565b6000600160008473ffffffffffffffffffffffffffffffffffffffff1673ffffffffffffffffffffffffffffffffffffffff16815260200190815260200160002060008373ffffffffffffffffffffffffffffffffffffffff1673ffffffffffffffffffffffffffffffffffffffff16815260200190815260200160002054905092915050565b60065481565b600033905090565b600073ffffffffffffffffffffffffffffffffffffffff168373ffffffffffffffffffffffffffffffffffffffff161415610a4b576040517f08c379a00000000000000000000000000000000000000000000000000000000081526004018080602001828103825260248152602001806110736024913960400191505060405180910390fd5b600073ffffffffffffffffffffffffffffffffffffffff168273ffffffffffffffffffffffffffffffffffffffff161415610ad1576040517f08c379a0000000000000000000000000000000000000000000000000000000008152600401808060200182810382526022815260200180610fde6022913960400191505060405180910390fd5b80600160008573ffffffffffffffffffffffffffffffffffffffff1673ffffffffffffffffffffffffffffffffffffffff16815260200190815260200160002060008473ffffffffffffffffffffffffffffffffffffffff1673ffffffffffffffffffffffffffffffffffffffff168152602001908152602001600020819055508173ffffffffffffffffffffffffffffffffffffffff168373ffffffffffffffffffffffffffffffffffffffff167f8c5be1e5ebec7d5bd14f71427d1e84f3dd0314c0f7b2291e5b200ac8c7c3b925836040518082815260200191505060405180910390a3505050565b600073ffffffffffffffffffffffffffffffffffffffff168373ffffffffffffffffffffffffffffffffffffffff161415610c42576040517f08c379a000000000000000000000000000000000000000000000000000000000815260040180806020018281038252602581526020018061104e6025913960400191505060405180910390fd5b600073ffffffffffffffffffffffffffffffffffffffff168273ffffffffffffffffffffffffffffffffffffffff161415610cc8576040517f08c379a0000000000000000000000000000000000000000000000000000000008152600401808060200182810382526023815260200180610fbb6023913960400191505060405180910390fd5b610d3381604051806060016040528060268152602001611000602691396000808773ffffffffffffffffffffffffffffffffffffffff1673ffffffffffffffffffffffffffffffffffffffff16815260200190815260200160002054610e729092919063ffffffff16565b6000808573ffffffffffffffffffffffffffffffffffffffff1673ffffffffffffffffffffffffffffffffffffffff16815260200190815260200160002081905550610dc6816000808573ffffffffffffffffffffffffffffffffffffffff1673ffffffffffffffffffffffffffffffffffffffff16815260200190815260200160002054610f3290919063ffffffff16565b6000808473ffffffffffffffffffffffffffffffffffffffff1673ffffffffffffffffffffffffffffffffffffffff168152602001908152602001600020819055508173ffffffffffffffffffffffffffffffffffffffff168373ffffffffffffffffffffffffffffffffffffffff167fddf252ad1be2c89b69c2b068fc378daa952ba7f163c4a11628f55a4df523b3ef836040518082815260200191505060405180910390a3505050565b6000838311158290610f1f576040517f08c379a00000000000000000000000000000000000000000000000000000000081526004018080602001828103825283818151815260200191508051906020019080838360005b83811015610ee4578082015181840152602081019050610ec9565b50505050905090810190601f168015610f115780820380516001836020036101000a031916815260200191505b509250505060405180910390fd5b5060008385039050809150509392505050565b600080828401905083811015610fb0576040517f08c379a000000000000000000000000000000000000000000000000000000000815260040180806020018281038252601b8152602001807f536166654d6174683a206164646974696f6e206f766572666c6f77000000000081525060200191505060405180910390fd5b809150509291505056fe45524332303a207472616e7366657220746f20746865207a65726f206164647265737345524332303a20617070726f766520746f20746865207a65726f206164647265737345524332303a207472616e7366657220616d6f756e7420657863656564732062616c616e636545524332303a207472616e7366657220616d6f756e74206578636565647320616c6c6f77616e636545524332303a207472616e736665722066726f6d20746865207a65726f206164647265737345524332303a20617070726f76652066726f6d20746865207a65726f206164647265737345524332303a2064656372656173656420616c6c6f77616e63652062656c6f77207a65726fa265627a7a7231582078fe0495fcad7555542ec4ac83914f8a6e5ef2f198fb13aba3e63f116aff0c9b64736f6c634300050c003245524332303a207472616e7366657220746f20746865207a65726f20616464726573734d61726b657420494e464f3a20496e666f726d6174696f6e206e6f7420666f756e644f776e61626c653a206e6577206f776e657220697320746865207a65726f206164647265737345524332303a20617070726f766520746f20746865207a65726f206164647265737345524332303a207472616e7366657220616d6f756e7420657863656564732062616c616e63654552524f523a20746865206e756d626572206f6620736861726573546f6b656e20646f6573206e6f74206d6174636820746865206465636c61726564536166654d6174683a206d756c7469706c69636174696f6e206f766572666c6f7745524332303a207472616e7366657220616d6f756e74206578636565647320616c6c6f77616e63654552524f523a20746865206e756d626572206f6620546f6b656e20646f6573206e6f74206d6174636820746865206465636c6172656445524332303a207472616e736665722066726f6d20746865207a65726f206164647265737345524332303a20617070726f76652066726f6d20746865207a65726f206164647265737345524332303a2064656372656173656420616c6c6f77616e63652062656c6f77207a65726fa265627a7a7231582045b3a8dfc18afc91078ae95a2dd53f4c9fb69fda884f49ab70559e9adc5d2abf64736f6c634300050c0032",
  "source": "pragma solidity >=0.4.21 < 0.7.0;\r\nimport \"./../node_modules/@openzeppelin/contracts/math/SafeMath.sol\";\r\nimport \"./../node_modules/@openzeppelin/contracts/ownership/Ownable.sol\";\r\nimport \"./../node_modules/@openzeppelin/contracts/token/ERC20/ERC20.sol\";\r\nimport './Token.sol';\r\n\r\ncontract Market is Ownable, ERC20 {\r\n\r\n     using SafeMath for uint256;\r\n     using SafeMath for uint32;\r\n     using SafeMath for uint16;\r\n\r\n     event NewToken(string name);\r\n     event TransferToken(address _from, address _to, string _nameToken);\r\n\r\n     mapping(string => Token) public tokenMap;\r\n     mapping(string => uint) private _availableQuantityToken;\r\n     mapping (address => mapping(string => uint)) public traiderCountToken;\r\n     modifier getTokenInfo(string memory _nameToken) {\r\n       require(address(tokenMap[_nameToken]) != address(0), \"Market INFO: Information not found\");\r\n     _;\r\n    }\r\n\r\n    function createTokenMarket(string memory _name, string memory _description,uint256 _price, uint256 _totalToken) public {\r\n        Token token = new Token(_name, _description, _price, _totalToken);\r\n        tokenMap[_name] = token;\r\n        traiderCountToken[msg.sender][_name] = traiderCountToken[msg.sender][_name].add(_totalToken);\r\n        emit NewToken(_name);\r\n     }\r\n\r\n    function getPrice(string memory _name) public view getTokenInfo(_name) returns(uint256) {\r\n         return tokenMap[_name].tokenPrice();\r\n     }\r\n\r\n    function getDescriptionToken(string memory _name) public view getTokenInfo(_name) returns (string memory) {\r\n      return tokenMap[_name].description();\r\n     }\r\n\r\n    function getAvailableQuantityToken(string memory _name) public view getTokenInfo(_name) returns(uint256) {\r\n      return _availableQuantityToken[_name];\r\n     }\r\n\r\n      function addAvailableQuantityToken(string memory _name, uint _countToken) internal {\r\n       _availableQuantityToken[_name] = _availableQuantityToken[_name].add(_countToken);\r\n     }\r\n\r\n      function subAvailableQuantityToken(string memory _name, uint _countToken) internal {\r\n       _availableQuantityToken[_name] = _availableQuantityToken[_name].sub(_countToken);\r\n     }\r\n\r\n     function traiderBuyToken(string memory _nameToken, uint256 _countToken) public payable {\r\n        require(getAvailableQuantityToken(_nameToken)>=_countToken, \"ERROR: the number of Token does not match the declared\");\r\n        require(getPrice(_nameToken).mul(_countToken) <= balanceOf(msg.sender), \"ERROR: the number of Token does not match the declared\");\r\n      //   require(transferFrom(address(this), msg.sender, _countToken), \"Market: transaction error\");\r\n        require(tokenMap[_nameToken].transfer(msg.sender, _countToken),\"Market: transaction error\");\r\n        uint totalPrice = getPrice(_nameToken).mul(_countToken);\r\n      //   require(transfer(address(this), totalPrice),\"Market: transaction error\");\r\n        msg.sender.transfer(totalPrice);\r\n        subAvailableQuantityToken(_nameToken, _countToken);\r\n        traiderCountToken[msg.sender][_nameToken] = traiderCountToken[msg.sender][_nameToken].add(_countToken);\r\n     }\r\n\r\n     function traiderSellToken(string memory _nameToken, uint _countToken) public payable {\r\n        require(traiderCountToken[msg.sender][_nameToken] >= _countToken, \"ERROR: the number of sharesToken does not match the declared\");\r\n        traiderCountToken[msg.sender][_nameToken] = traiderCountToken[msg.sender][_nameToken].sub(_countToken);\r\n        uint totalPrice = getPrice(_nameToken).mul(_countToken);\r\n        require(tokenMap[_nameToken].transferFrom(msg.sender, address(this), _countToken), \"Market: transaction error\");\r\n       //   require(transferFrom(msg.sender, address(this), _countToken), \"Market: transaction error\");\r\n       addAvailableQuantityToken(_nameToken, _countToken);\r\n        transfer(msg.sender, totalPrice);\r\n     }\r\n}",
  "sourcePath": "D://frontend//Solidity/stock market/stock-market-solidity/contracts/Market.sol",
  "compiler": {
    "name": "solc",
    "version": "0.5.12+commit.7709ece9.Emscripten.clang"
  },
  "schemaVersion": "3.0.18",
  "updatedAt": "2019-11-10T19:01:35.147Z",
  "devdoc": {
    "methods": {
      "allowance(address,address)": {
        "details": "See {IERC20-allowance}."
      },
      "approve(address,uint256)": {
        "details": "See {IERC20-approve}.     * Requirements:     * - `spender` cannot be the zero address."
      },
      "balanceOf(address)": {
        "details": "See {IERC20-balanceOf}."
      },
      "decreaseAllowance(address,uint256)": {
        "details": "Atomically decreases the allowance granted to `spender` by the caller.     * This is an alternative to {approve} that can be used as a mitigation for problems described in {IERC20-approve}.     * Emits an {Approval} event indicating the updated allowance.     * Requirements:     * - `spender` cannot be the zero address. - `spender` must have allowance for the caller of at least `subtractedValue`."
      },
      "increaseAllowance(address,uint256)": {
        "details": "Atomically increases the allowance granted to `spender` by the caller.     * This is an alternative to {approve} that can be used as a mitigation for problems described in {IERC20-approve}.     * Emits an {Approval} event indicating the updated allowance.     * Requirements:     * - `spender` cannot be the zero address."
      },
      "isOwner()": {
        "details": "Returns true if the caller is the current owner."
      },
      "owner()": {
        "details": "Returns the address of the current owner."
      },
      "renounceOwnership()": {
        "details": "Leaves the contract without owner. It will not be possible to call `onlyOwner` functions anymore. Can only be called by the current owner.     * NOTE: Renouncing ownership will leave the contract without an owner, thereby removing any functionality that is only available to the owner."
      },
      "totalSupply()": {
        "details": "See {IERC20-totalSupply}."
      },
      "transfer(address,uint256)": {
        "details": "See {IERC20-transfer}.     * Requirements:     * - `recipient` cannot be the zero address. - the caller must have a balance of at least `amount`."
      },
      "transferFrom(address,address,uint256)": {
        "details": "See {IERC20-transferFrom}.     * Emits an {Approval} event indicating the updated allowance. This is not required by the EIP. See the note at the beginning of {ERC20};     * Requirements: - `sender` and `recipient` cannot be the zero address. - `sender` must have a balance of at least `amount`. - the caller must have allowance for `sender`'s tokens of at least `amount`."
      },
      "transferOwnership(address)": {
        "details": "Transfers ownership of the contract to a new account (`newOwner`). Can only be called by the current owner."
      }
    }
  },
  "userdoc": {
    "methods": {}
  }
}