{
  "contractName": "Market",
  "abi": [
    {
      "anonymous": false,
      "inputs": [
        {
          "indexed": true,
          "internalType": "address",
          "name": "owner",
          "type": "address"
        },
        {
          "indexed": true,
          "internalType": "address",
          "name": "spender",
          "type": "address"
        },
        {
          "indexed": false,
          "internalType": "uint256",
          "name": "value",
          "type": "uint256"
        }
      ],
      "name": "Approval",
      "type": "event"
    },
    {
      "anonymous": false,
      "inputs": [
        {
          "indexed": false,
          "internalType": "string",
          "name": "name",
          "type": "string"
        }
      ],
      "name": "NewProject",
      "type": "event"
    },
    {
      "anonymous": false,
      "inputs": [
        {
          "indexed": true,
          "internalType": "address",
          "name": "from",
          "type": "address"
        },
        {
          "indexed": true,
          "internalType": "address",
          "name": "to",
          "type": "address"
        },
        {
          "indexed": false,
          "internalType": "uint256",
          "name": "value",
          "type": "uint256"
        }
      ],
      "name": "Transfer",
      "type": "event"
    },
    {
      "anonymous": false,
      "inputs": [
        {
          "indexed": false,
          "internalType": "address",
          "name": "_from",
          "type": "address"
        },
        {
          "indexed": false,
          "internalType": "address",
          "name": "_to",
          "type": "address"
        },
        {
          "indexed": false,
          "internalType": "string",
          "name": "_nameProject",
          "type": "string"
        }
      ],
      "name": "TransferProject",
      "type": "event"
    },
    {
      "constant": true,
      "inputs": [
        {
          "internalType": "address",
          "name": "owner",
          "type": "address"
        },
        {
          "internalType": "address",
          "name": "spender",
          "type": "address"
        }
      ],
      "name": "allowance",
      "outputs": [
        {
          "internalType": "uint256",
          "name": "",
          "type": "uint256"
        }
      ],
      "payable": false,
      "stateMutability": "view",
      "type": "function"
    },
    {
      "constant": false,
      "inputs": [
        {
          "internalType": "address",
          "name": "spender",
          "type": "address"
        },
        {
          "internalType": "uint256",
          "name": "amount",
          "type": "uint256"
        }
      ],
      "name": "approve",
      "outputs": [
        {
          "internalType": "bool",
          "name": "",
          "type": "bool"
        }
      ],
      "payable": false,
      "stateMutability": "nonpayable",
      "type": "function"
    },
    {
      "constant": true,
      "inputs": [
        {
          "internalType": "address",
          "name": "account",
          "type": "address"
        }
      ],
      "name": "balanceOf",
      "outputs": [
        {
          "internalType": "uint256",
          "name": "",
          "type": "uint256"
        }
      ],
      "payable": false,
      "stateMutability": "view",
      "type": "function"
    },
    {
      "constant": false,
      "inputs": [
        {
          "internalType": "address",
          "name": "spender",
          "type": "address"
        },
        {
          "internalType": "uint256",
          "name": "subtractedValue",
          "type": "uint256"
        }
      ],
      "name": "decreaseAllowance",
      "outputs": [
        {
          "internalType": "bool",
          "name": "",
          "type": "bool"
        }
      ],
      "payable": false,
      "stateMutability": "nonpayable",
      "type": "function"
    },
    {
      "constant": false,
      "inputs": [
        {
          "internalType": "address",
          "name": "spender",
          "type": "address"
        },
        {
          "internalType": "uint256",
          "name": "addedValue",
          "type": "uint256"
        }
      ],
      "name": "increaseAllowance",
      "outputs": [
        {
          "internalType": "bool",
          "name": "",
          "type": "bool"
        }
      ],
      "payable": false,
      "stateMutability": "nonpayable",
      "type": "function"
    },
    {
      "constant": true,
      "inputs": [
        {
          "internalType": "string",
          "name": "",
          "type": "string"
        }
      ],
      "name": "projectMap",
      "outputs": [
        {
          "internalType": "contract Project",
          "name": "",
          "type": "address"
        }
      ],
      "payable": false,
      "stateMutability": "view",
      "type": "function"
    },
    {
      "constant": true,
      "inputs": [],
      "name": "totalSupply",
      "outputs": [
        {
          "internalType": "uint256",
          "name": "",
          "type": "uint256"
        }
      ],
      "payable": false,
      "stateMutability": "view",
      "type": "function"
    },
    {
      "constant": false,
      "inputs": [
        {
          "internalType": "address",
          "name": "recipient",
          "type": "address"
        },
        {
          "internalType": "uint256",
          "name": "amount",
          "type": "uint256"
        }
      ],
      "name": "transfer",
      "outputs": [
        {
          "internalType": "bool",
          "name": "",
          "type": "bool"
        }
      ],
      "payable": false,
      "stateMutability": "nonpayable",
      "type": "function"
    },
    {
      "constant": false,
      "inputs": [
        {
          "internalType": "address",
          "name": "sender",
          "type": "address"
        },
        {
          "internalType": "address",
          "name": "recipient",
          "type": "address"
        },
        {
          "internalType": "uint256",
          "name": "amount",
          "type": "uint256"
        }
      ],
      "name": "transferFrom",
      "outputs": [
        {
          "internalType": "bool",
          "name": "",
          "type": "bool"
        }
      ],
      "payable": false,
      "stateMutability": "nonpayable",
      "type": "function"
    },
    {
      "constant": false,
      "inputs": [
        {
          "internalType": "string",
          "name": "_name",
          "type": "string"
        },
        {
          "internalType": "string",
          "name": "_description",
          "type": "string"
        },
        {
          "internalType": "uint256",
          "name": "_price",
          "type": "uint256"
        },
        {
          "internalType": "uint256",
          "name": "_totalProject",
          "type": "uint256"
        }
      ],
      "name": "createTokenMarket",
      "outputs": [],
      "payable": false,
      "stateMutability": "nonpayable",
      "type": "function"
    },
    {
      "constant": true,
      "inputs": [
        {
          "internalType": "string",
          "name": "_name",
          "type": "string"
        }
      ],
      "name": "getPrice",
      "outputs": [
        {
          "internalType": "uint256",
          "name": "",
          "type": "uint256"
        }
      ],
      "payable": false,
      "stateMutability": "view",
      "type": "function"
    },
    {
      "constant": true,
      "inputs": [
        {
          "internalType": "string",
          "name": "_name",
          "type": "string"
        }
      ],
      "name": "getDescriptionProject",
      "outputs": [
        {
          "internalType": "string",
          "name": "",
          "type": "string"
        }
      ],
      "payable": false,
      "stateMutability": "view",
      "type": "function"
    },
    {
      "constant": true,
      "inputs": [
        {
          "internalType": "string",
          "name": "_name",
          "type": "string"
        }
      ],
      "name": "getAvailableQuantityProject",
      "outputs": [
        {
          "internalType": "uint256",
          "name": "",
          "type": "uint256"
        }
      ],
      "payable": false,
      "stateMutability": "view",
      "type": "function"
    },
    {
      "constant": false,
      "inputs": [
        {
          "internalType": "string",
          "name": "_nameToken",
          "type": "string"
        },
        {
          "internalType": "uint256",
          "name": "_countToken",
          "type": "uint256"
        }
      ],
      "name": "traiderBuyToken",
      "outputs": [],
      "payable": true,
      "stateMutability": "payable",
      "type": "function"
    },
    {
      "constant": false,
      "inputs": [
        {
          "internalType": "string",
          "name": "_nameToken",
          "type": "string"
        },
        {
          "internalType": "uint256",
          "name": "_countToken",
          "type": "uint256"
        }
      ],
      "name": "traiderSellToken",
      "outputs": [],
      "payable": true,
      "stateMutability": "payable",
      "type": "function"
    }
  ],
  "bytecode": "0x6080604052613f6b806100136000396000f3fe608060405260043610620000fe5760003560e01c80635723633f1162000097578063a9059cbb1162000061578063a9059cbb146200091b578063d756b7671462000992578063dd62ed3e1462000a5d578063ddc7cb061462000ae657620000fe565b80635723633f14620005f357806370a082311462000770578063924a0dc614620007d9578063a457c2d714620008a457620000fe565b806323b872dd11620000d957806323b872dd14620002b757806326735e4e146200034e578063395093511462000499578063524f3889146200051057620000fe565b8063095ea7b3146200010357806318160ddd146200017a5780631a8c7f3b14620001a8575b600080fd5b3480156200011057600080fd5b5062000160600480360360408110156200012957600080fd5b81019080803573ffffffffffffffffffffffffffffffffffffffff1690602001909291908035906020019092919050505062000bc9565b604051808215151515815260200191505060405180910390f35b3480156200018757600080fd5b506200019262000beb565b6040518082815260200191505060405180910390f35b348015620001b557600080fd5b506200027560048036036020811015620001ce57600080fd5b8101908080359060200190640100000000811115620001ec57600080fd5b820183602082011115620001ff57600080fd5b803590602001918460018302840111640100000000831117156200022257600080fd5b91908080601f016020809104026020016040519081016040528093929190818152602001838380828437600081840152601f19601f82011690508083019250505050505050919291929050505062000bf5565b604051808273ffffffffffffffffffffffffffffffffffffffff1673ffffffffffffffffffffffffffffffffffffffff16815260200191505060405180910390f35b348015620002c457600080fd5b506200033460048036036060811015620002dd57600080fd5b81019080803573ffffffffffffffffffffffffffffffffffffffff169060200190929190803573ffffffffffffffffffffffffffffffffffffffff1690602001909291908035906020019092919050505062000c3e565b604051808215151515815260200191505060405180910390f35b3480156200035b57600080fd5b506200041b600480360360208110156200037457600080fd5b81019080803590602001906401000000008111156200039257600080fd5b820183602082011115620003a557600080fd5b80359060200191846001830284011164010000000083111715620003c857600080fd5b91908080601f016020809104026020016040519081016040528093929190818152602001838380828437600081840152601f19601f82011690508083019250505050505050919291929050505062000d22565b6040518080602001828103825283818151815260200191508051906020019080838360005b838110156200045d57808201518184015260208101905062000440565b50505050905090810190601f1680156200048b5780820380516001836020036101000a031916815260200191505b509250505060405180910390f35b348015620004a657600080fd5b50620004f660048036036040811015620004bf57600080fd5b81019080803573ffffffffffffffffffffffffffffffffffffffff1690602001909291908035906020019092919050505062001013565b604051808215151515815260200191505060405180910390f35b3480156200051d57600080fd5b50620005dd600480360360208110156200053657600080fd5b81019080803590602001906401000000008111156200055457600080fd5b8201836020820111156200056757600080fd5b803590602001918460018302840111640100000000831117156200058a57600080fd5b91908080601f016020809104026020016040519081016040528093929190818152602001838380828437600081840152601f19601f820116905080830192505050505050509192919290505050620010ce565b6040518082815260200191505060405180910390f35b3480156200060057600080fd5b506200076e600480360360808110156200061957600080fd5b81019080803590602001906401000000008111156200063757600080fd5b8201836020820111156200064a57600080fd5b803590602001918460018302840111640100000000831117156200066d57600080fd5b91908080601f016020809104026020016040519081016040528093929190818152602001838380828437600081840152601f19601f82011690508083019250505050505050919291929080359060200190640100000000811115620006d157600080fd5b820183602082011115620006e457600080fd5b803590602001918460018302840111640100000000831117156200070757600080fd5b91908080601f016020809104026020016040519081016040528093929190818152602001838380828437600081840152601f19601f8201169050808301925050505050505091929192908035906020019092919080359060200190929190505050620012fb565b005b3480156200077d57600080fd5b50620007c3600480360360208110156200079657600080fd5b81019080803573ffffffffffffffffffffffffffffffffffffffff1690602001909291905050506200156e565b6040518082815260200191505060405180910390f35b620008a260048036036040811015620007f157600080fd5b81019080803590602001906401000000008111156200080f57600080fd5b8201836020820111156200082257600080fd5b803590602001918460018302840111640100000000831117156200084557600080fd5b91908080601f016020809104026020016040519081016040528093929190818152602001838380828437600081840152601f19601f82011690508083019250505050505050919291929080359060200190929190505050620015b6565b005b348015620008b157600080fd5b506200090160048036036040811015620008ca57600080fd5b81019080803573ffffffffffffffffffffffffffffffffffffffff1690602001909291908035906020019092919050505062001853565b604051808215151515815260200191505060405180910390f35b3480156200092857600080fd5b5062000978600480360360408110156200094157600080fd5b81019080803573ffffffffffffffffffffffffffffffffffffffff1690602001909291908035906020019092919050505062001929565b604051808215151515815260200191505060405180910390f35b62000a5b60048036036040811015620009aa57600080fd5b8101908080359060200190640100000000811115620009c857600080fd5b820183602082011115620009db57600080fd5b80359060200191846001830284011164010000000083111715620009fe57600080fd5b91908080601f016020809104026020016040519081016040528093929190818152602001838380828437600081840152601f19601f820116905080830192505050505050509192919290803590602001909291905050506200194b565b005b34801562000a6a57600080fd5b5062000ad06004803603604081101562000a8357600080fd5b81019080803573ffffffffffffffffffffffffffffffffffffffff169060200190929190803573ffffffffffffffffffffffffffffffffffffffff16906020019092919050505062001c72565b6040518082815260200191505060405180910390f35b34801562000af357600080fd5b5062000bb36004803603602081101562000b0c57600080fd5b810190808035906020019064010000000081111562000b2a57600080fd5b82018360208201111562000b3d57600080fd5b8035906020019184600183028401116401000000008311171562000b6057600080fd5b91908080601f016020809104026020016040519081016040528093929190818152602001838380828437600081840152601f19601f82011690508083019250505050505050919291929050505062001cf9565b6040518082815260200191505060405180910390f35b600062000be162000bd962001e83565b848462001e8b565b6001905092915050565b6000600254905090565b6003818051602081018201805184825260208301602085012081835280955050505050506000915054906101000a900473ffffffffffffffffffffffffffffffffffffffff1681565b600062000c4d84848462002086565b62000d178462000c5c62001e83565b62000d118560405180606001604052806028815260200162003e6b60289139600160008b73ffffffffffffffffffffffffffffffffffffffff1673ffffffffffffffffffffffffffffffffffffffff168152602001908152602001600020600062000cc662001e83565b73ffffffffffffffffffffffffffffffffffffffff1673ffffffffffffffffffffffffffffffffffffffff16815260200190815260200160002054620023459092919063ffffffff16565b62001e8b565b600190509392505050565b606081600073ffffffffffffffffffffffffffffffffffffffff166003826040518082805190602001908083835b6020831062000d75578051825260208201915060208101905060208303925062000d50565b6001836020036101000a038019825116818451168082178552505050505050905001915050908152602001604051809103902060009054906101000a900473ffffffffffffffffffffffffffffffffffffffff1673ffffffffffffffffffffffffffffffffffffffff16141562000e38576040517f08c379a000000000000000000000000000000000000000000000000000000000815260040180806020018281038252602281526020018062003da46022913960400191505060405180910390fd5b6003836040518082805190602001908083835b6020831062000e70578051825260208201915060208101905060208303925062000e4b565b6001836020036101000a038019825116818451168082178552505050505050905001915050908152602001604051809103902060009054906101000a900473ffffffffffffffffffffffffffffffffffffffff1673ffffffffffffffffffffffffffffffffffffffff16637284e4166040518163ffffffff1660e01b815260040160006040518083038186803b15801562000f0a57600080fd5b505afa15801562000f1f573d6000803e3d6000fd5b505050506040513d6000823e3d601f19601f82011682018060405250602081101562000f4a57600080fd5b810190808051604051939291908464010000000082111562000f6b57600080fd5b8382019150602082018581111562000f8257600080fd5b825186600182028301116401000000008211171562000fa057600080fd5b8083526020830192505050908051906020019080838360005b8381101562000fd657808201518184015260208101905062000fb9565b50505050905090810190601f168015620010045780820380516001836020036101000a031916815260200191505b50604052505050915050919050565b6000620010c46200102362001e83565b84620010be85600160006200103762001e83565b73ffffffffffffffffffffffffffffffffffffffff1673ffffffffffffffffffffffffffffffffffffffff16815260200190815260200160002060008973ffffffffffffffffffffffffffffffffffffffff1673ffffffffffffffffffffffffffffffffffffffff168152602001908152602001600020546200240990919063ffffffff16565b62001e8b565b6001905092915050565b600081600073ffffffffffffffffffffffffffffffffffffffff166003826040518082805190602001908083835b60208310620011215780518252602082019150602081019050602083039250620010fc565b6001836020036101000a038019825116818451168082178552505050505050905001915050908152602001604051809103902060009054906101000a900473ffffffffffffffffffffffffffffffffffffffff1673ffffffffffffffffffffffffffffffffffffffff161415620011e4576040517f08c379a000000000000000000000000000000000000000000000000000000000815260040180806020018281038252602281526020018062003da46022913960400191505060405180910390fd5b6003836040518082805190602001908083835b602083106200121c5780518252602082019150602081019050602083039250620011f7565b6001836020036101000a038019825116818451168082178552505050505050905001915050908152602001604051809103902060009054906101000a900473ffffffffffffffffffffffffffffffffffffffff1673ffffffffffffffffffffffffffffffffffffffff16637ff9b5966040518163ffffffff1660e01b815260040160206040518083038186803b158015620012b657600080fd5b505afa158015620012cb573d6000803e3d6000fd5b505050506040513d6020811015620012e257600080fd5b8101908080519060200190929190505050915050919050565b6000848484846040516200130f906200274f565b808060200180602001858152602001848152602001838103835287818151815260200191508051906020019080838360005b838110156200135e57808201518184015260208101905062001341565b50505050905090810190601f1680156200138c5780820380516001836020036101000a031916815260200191505b50838103825286818151815260200191508051906020019080838360005b83811015620013c7578082015181840152602081019050620013aa565b50505050905090810190601f168015620013f55780820380516001836020036101000a031916815260200191505b509650505050505050604051809103906000f0801580156200141b573d6000803e3d6000fd5b509050806003866040518082805190602001908083835b6020831062001457578051825260208201915060208101905060208303925062001432565b6001836020036101000a038019825116818451168082178552505050505050905001915050908152602001604051809103902060006101000a81548173ffffffffffffffffffffffffffffffffffffffff021916908373ffffffffffffffffffffffffffffffffffffffff1602179055507fa574171d77e04cf709c4d16c4a88c4159627ae9e3d425580727b24823c489946856040518080602001828103825283818151815260200191508051906020019080838360005b838110156200152c5780820151818401526020810190506200150f565b50505050905090810190601f1680156200155a5780820380516001836020036101000a031916815260200191505b509250505060405180910390a15050505050565b60008060008373ffffffffffffffffffffffffffffffffffffffff1673ffffffffffffffffffffffffffffffffffffffff168152602001908152602001600020549050919050565b80620015c2336200156e565b10156200161b576040517f08c379a000000000000000000000000000000000000000000000000000000000815260040180806020018281038252603c81526020018062003e0e603c913960400191505060405180910390fd5b60006200163c826200162d85620010ce565b6200249290919063ffffffff16565b90506003836040518082805190602001908083835b6020831062001676578051825260208201915060208101905060208303925062001651565b6001836020036101000a038019825116818451168082178552505050505050905001915050908152602001604051809103902060009054906101000a900473ffffffffffffffffffffffffffffffffffffffff1673ffffffffffffffffffffffffffffffffffffffff166323b872dd3330856040518463ffffffff1660e01b8152600401808473ffffffffffffffffffffffffffffffffffffffff1673ffffffffffffffffffffffffffffffffffffffff1681526020018373ffffffffffffffffffffffffffffffffffffffff1673ffffffffffffffffffffffffffffffffffffffff1681526020018281526020019350505050602060405180830381600087803b1580156200178557600080fd5b505af11580156200179a573d6000803e3d6000fd5b505050506040513d6020811015620017b157600080fd5b810190808051906020019092919050505062001835576040517f08c379a00000000000000000000000000000000000000000000000000000000081526004018080602001828103825260198152602001807f4d61726b65743a207472616e73616374696f6e206572726f720000000000000081525060200191505060405180910390fd5b6200184183836200251d565b6200184d338262001929565b50505050565b60006200191f6200186362001e83565b84620019198560405180606001604052806025815260200162003f1260259139600160006200189162001e83565b73ffffffffffffffffffffffffffffffffffffffff1673ffffffffffffffffffffffffffffffffffffffff16815260200190815260200160002060008a73ffffffffffffffffffffffffffffffffffffffff1673ffffffffffffffffffffffffffffffffffffffff16815260200190815260200160002054620023459092919063ffffffff16565b62001e8b565b6001905092915050565b6000620019416200193962001e83565b848462002086565b6001905092915050565b80620019578362001cf9565b1015620019b0576040517f08c379a000000000000000000000000000000000000000000000000000000000815260040180806020018281038252603681526020018062003e936036913960400191505060405180910390fd5b620019bb336200156e565b620019da82620019cb85620010ce565b6200249290919063ffffffff16565b111562001a33576040517f08c379a000000000000000000000000000000000000000000000000000000000815260040180806020018281038252603681526020018062003e936036913960400191505060405180910390fd5b6003826040518082805190602001908083835b6020831062001a6b578051825260208201915060208101905060208303925062001a46565b6001836020036101000a038019825116818451168082178552505050505050905001915050908152602001604051809103902060009054906101000a900473ffffffffffffffffffffffffffffffffffffffff1673ffffffffffffffffffffffffffffffffffffffff1663a9059cbb33836040518363ffffffff1660e01b8152600401808373ffffffffffffffffffffffffffffffffffffffff1673ffffffffffffffffffffffffffffffffffffffff16815260200182815260200192505050602060405180830381600087803b15801562001b4657600080fd5b505af115801562001b5b573d6000803e3d6000fd5b505050506040513d602081101562001b7257600080fd5b810190808051906020019092919050505062001bf6576040517f08c379a00000000000000000000000000000000000000000000000000000000081526004018080602001828103825260198152602001807f4d61726b65743a207472616e73616374696f6e206572726f720000000000000081525060200191505060405180910390fd5b600062001c178262001c0885620010ce565b6200249290919063ffffffff16565b90503373ffffffffffffffffffffffffffffffffffffffff166108fc829081150290604051600060405180830381858888f1935050505015801562001c60573d6000803e3d6000fd5b5062001c6d838362002610565b505050565b6000600160008473ffffffffffffffffffffffffffffffffffffffff1673ffffffffffffffffffffffffffffffffffffffff16815260200190815260200160002060008373ffffffffffffffffffffffffffffffffffffffff1673ffffffffffffffffffffffffffffffffffffffff16815260200190815260200160002054905092915050565b600081600073ffffffffffffffffffffffffffffffffffffffff166003826040518082805190602001908083835b6020831062001d4c578051825260208201915060208101905060208303925062001d27565b6001836020036101000a038019825116818451168082178552505050505050905001915050908152602001604051809103902060009054906101000a900473ffffffffffffffffffffffffffffffffffffffff1673ffffffffffffffffffffffffffffffffffffffff16141562001e0f576040517f08c379a000000000000000000000000000000000000000000000000000000000815260040180806020018281038252602281526020018062003da46022913960400191505060405180910390fd5b6004836040518082805190602001908083835b6020831062001e47578051825260208201915060208101905060208303925062001e22565b6001836020036101000a038019825116818451168082178552505050505050905001915050908152602001604051809103902054915050919050565b600033905090565b600073ffffffffffffffffffffffffffffffffffffffff168373ffffffffffffffffffffffffffffffffffffffff16141562001f13576040517f08c379a000000000000000000000000000000000000000000000000000000000815260040180806020018281038252602481526020018062003eee6024913960400191505060405180910390fd5b600073ffffffffffffffffffffffffffffffffffffffff168273ffffffffffffffffffffffffffffffffffffffff16141562001f9b576040517f08c379a000000000000000000000000000000000000000000000000000000000815260040180806020018281038252602281526020018062003dc66022913960400191505060405180910390fd5b80600160008573ffffffffffffffffffffffffffffffffffffffff1673ffffffffffffffffffffffffffffffffffffffff16815260200190815260200160002060008473ffffffffffffffffffffffffffffffffffffffff1673ffffffffffffffffffffffffffffffffffffffff168152602001908152602001600020819055508173ffffffffffffffffffffffffffffffffffffffff168373ffffffffffffffffffffffffffffffffffffffff167f8c5be1e5ebec7d5bd14f71427d1e84f3dd0314c0f7b2291e5b200ac8c7c3b925836040518082815260200191505060405180910390a3505050565b600073ffffffffffffffffffffffffffffffffffffffff168373ffffffffffffffffffffffffffffffffffffffff1614156200210e576040517f08c379a000000000000000000000000000000000000000000000000000000000815260040180806020018281038252602581526020018062003ec96025913960400191505060405180910390fd5b600073ffffffffffffffffffffffffffffffffffffffff168273ffffffffffffffffffffffffffffffffffffffff16141562002196576040517f08c379a000000000000000000000000000000000000000000000000000000000815260040180806020018281038252602381526020018062003d816023913960400191505060405180910390fd5b620022048160405180606001604052806026815260200162003de8602691396000808773ffffffffffffffffffffffffffffffffffffffff1673ffffffffffffffffffffffffffffffffffffffff16815260200190815260200160002054620023459092919063ffffffff16565b6000808573ffffffffffffffffffffffffffffffffffffffff1673ffffffffffffffffffffffffffffffffffffffff1681526020019081526020016000208190555062002299816000808573ffffffffffffffffffffffffffffffffffffffff1673ffffffffffffffffffffffffffffffffffffffff168152602001908152602001600020546200240990919063ffffffff16565b6000808473ffffffffffffffffffffffffffffffffffffffff1673ffffffffffffffffffffffffffffffffffffffff168152602001908152602001600020819055508173ffffffffffffffffffffffffffffffffffffffff168373ffffffffffffffffffffffffffffffffffffffff167fddf252ad1be2c89b69c2b068fc378daa952ba7f163c4a11628f55a4df523b3ef836040518082815260200191505060405180910390a3505050565b6000838311158290620023f6576040517f08c379a00000000000000000000000000000000000000000000000000000000081526004018080602001828103825283818151815260200191508051906020019080838360005b83811015620023ba5780820151818401526020810190506200239d565b50505050905090810190601f168015620023e85780820380516001836020036101000a031916815260200191505b509250505060405180910390fd5b5060008385039050809150509392505050565b60008082840190508381101562002488576040517f08c379a000000000000000000000000000000000000000000000000000000000815260040180806020018281038252601b8152602001807f536166654d6174683a206164646974696f6e206f766572666c6f77000000000081525060200191505060405180910390fd5b8091505092915050565b600080831415620024a7576000905062002517565b6000828402905082848281620024b957fe5b041462002512576040517f08c379a000000000000000000000000000000000000000000000000000000000815260040180806020018281038252602181526020018062003e4a6021913960400191505060405180910390fd5b809150505b92915050565b6200259d816004846040518082805190602001908083835b602083106200255a578051825260208201915060208101905060208303925062002535565b6001836020036101000a0380198251168184511680821785525050505050509050019150509081526020016040518091039020546200240990919063ffffffff16565b6004836040518082805190602001908083835b60208310620025d55780518252602082019150602081019050602083039250620025b0565b6001836020036101000a0380198251168184511680821785525050505050509050019150509081526020016040518091039020819055505050565b62002690816004846040518082805190602001908083835b602083106200264d578051825260208201915060208101905060208303925062002628565b6001836020036101000a0380198251168184511680821785525050505050509050019150509081526020016040518091039020546200270390919063ffffffff16565b6004836040518082805190602001908083835b60208310620026c85780518252602082019150602081019050602083039250620026a3565b6001836020036101000a0380198251168184511680821785525050505050509050019150509081526020016040518091039020819055505050565b60006200274783836040518060400160405280601e81526020017f536166654d6174683a207375627472616374696f6e206f766572666c6f77000081525062002345565b905092915050565b611623806200275e8339019056fe60806040523480156200001157600080fd5b506040516200162338038062001623833981810160405260808110156200003757600080fd5b81019080805160405193929190846401000000008211156200005857600080fd5b838201915060208201858111156200006f57600080fd5b82518660018202830111640100000000821117156200008d57600080fd5b8083526020830192505050908051906020019080838360005b83811015620000c3578082015181840152602081019050620000a6565b50505050905090810190601f168015620000f15780820380516001836020036101000a031916815260200191505b50604052602001805160405193929190846401000000008211156200011557600080fd5b838201915060208201858111156200012c57600080fd5b82518660018202830111640100000000821117156200014a57600080fd5b8083526020830192505050908051906020019080838360005b838110156200018057808201518184015260208101905062000163565b50505050905090810190601f168015620001ae5780820380516001836020036101000a031916815260200191505b5060405260200180519060200190929190805190602001909291905050508360039080519060200190620001e492919062000474565b508260049080519060200190620001fd92919062000474565b50816005819055506200021733826200022160201b60201c565b5050505062000523565b600073ffffffffffffffffffffffffffffffffffffffff168273ffffffffffffffffffffffffffffffffffffffff161415620002c5576040517f08c379a000000000000000000000000000000000000000000000000000000000815260040180806020018281038252601f8152602001807f45524332303a206d696e7420746f20746865207a65726f20616464726573730081525060200191505060405180910390fd5b620002e181600254620003eb60201b62000f321790919060201c565b6002819055506200033f816000808573ffffffffffffffffffffffffffffffffffffffff1673ffffffffffffffffffffffffffffffffffffffff16815260200190815260200160002054620003eb60201b62000f321790919060201c565b6000808473ffffffffffffffffffffffffffffffffffffffff1673ffffffffffffffffffffffffffffffffffffffff168152602001908152602001600020819055508173ffffffffffffffffffffffffffffffffffffffff16600073ffffffffffffffffffffffffffffffffffffffff167fddf252ad1be2c89b69c2b068fc378daa952ba7f163c4a11628f55a4df523b3ef836040518082815260200191505060405180910390a35050565b6000808284019050838110156200046a576040517f08c379a000000000000000000000000000000000000000000000000000000000815260040180806020018281038252601b8152602001807f536166654d6174683a206164646974696f6e206f766572666c6f77000000000081525060200191505060405180910390fd5b8091505092915050565b828054600181600116156101000203166002900490600052602060002090601f016020900481019282601f10620004b757805160ff1916838001178555620004e8565b82800160010185558215620004e8579182015b82811115620004e7578251825591602001919060010190620004ca565b5b509050620004f79190620004fb565b5090565b6200052091905b808211156200051c57600081600090555060010162000502565b5090565b90565b6110f080620005336000396000f3fe608060405234801561001057600080fd5b50600436106100b45760003560e01c80637284e416116100715780637284e416146103045780637ff9b59614610387578063a457c2d7146103a5578063a9059cbb1461040b578063dd62ed3e14610471578063e088c9cd146104e9576100b4565b8063095ea7b3146100b957806318160ddd1461011f57806323b872dd1461013d57806339509351146101c35780636c02a9311461022957806370a08231146102ac575b600080fd5b610105600480360360408110156100cf57600080fd5b81019080803573ffffffffffffffffffffffffffffffffffffffff16906020019092919080359060200190929190505050610507565b604051808215151515815260200191505060405180910390f35b610127610525565b6040518082815260200191505060405180910390f35b6101a96004803603606081101561015357600080fd5b81019080803573ffffffffffffffffffffffffffffffffffffffff169060200190929190803573ffffffffffffffffffffffffffffffffffffffff1690602001909291908035906020019092919050505061052f565b604051808215151515815260200191505060405180910390f35b61020f600480360360408110156101d957600080fd5b81019080803573ffffffffffffffffffffffffffffffffffffffff16906020019092919080359060200190929190505050610608565b604051808215151515815260200191505060405180910390f35b6102316106bb565b6040518080602001828103825283818151815260200191508051906020019080838360005b83811015610271578082015181840152602081019050610256565b50505050905090810190601f16801561029e5780820380516001836020036101000a031916815260200191505b509250505060405180910390f35b6102ee600480360360208110156102c257600080fd5b81019080803573ffffffffffffffffffffffffffffffffffffffff169060200190929190505050610759565b6040518082815260200191505060405180910390f35b61030c6107a1565b6040518080602001828103825283818151815260200191508051906020019080838360005b8381101561034c578082015181840152602081019050610331565b50505050905090810190601f1680156103795780820380516001836020036101000a031916815260200191505b509250505060405180910390f35b61038f61083f565b6040518082815260200191505060405180910390f35b6103f1600480360360408110156103bb57600080fd5b81019080803573ffffffffffffffffffffffffffffffffffffffff16906020019092919080359060200190929190505050610845565b604051808215151515815260200191505060405180910390f35b6104576004803603604081101561042157600080fd5b81019080803573ffffffffffffffffffffffffffffffffffffffff16906020019092919080359060200190929190505050610912565b604051808215151515815260200191505060405180910390f35b6104d36004803603604081101561048757600080fd5b81019080803573ffffffffffffffffffffffffffffffffffffffff169060200190929190803573ffffffffffffffffffffffffffffffffffffffff169060200190929190505050610930565b6040518082815260200191505060405180910390f35b6104f16109b7565b6040518082815260200191505060405180910390f35b600061051b6105146109bd565b84846109c5565b6001905092915050565b6000600254905090565b600061053c848484610bbc565b6105fd846105486109bd565b6105f88560405180606001604052806028815260200161102660289139600160008b73ffffffffffffffffffffffffffffffffffffffff1673ffffffffffffffffffffffffffffffffffffffff16815260200190815260200160002060006105ae6109bd565b73ffffffffffffffffffffffffffffffffffffffff1673ffffffffffffffffffffffffffffffffffffffff16815260200190815260200160002054610e729092919063ffffffff16565b6109c5565b600190509392505050565b60006106b16106156109bd565b846106ac85600160006106266109bd565b73ffffffffffffffffffffffffffffffffffffffff1673ffffffffffffffffffffffffffffffffffffffff16815260200190815260200160002060008973ffffffffffffffffffffffffffffffffffffffff1673ffffffffffffffffffffffffffffffffffffffff16815260200190815260200160002054610f3290919063ffffffff16565b6109c5565b6001905092915050565b60038054600181600116156101000203166002900480601f0160208091040260200160405190810160405280929190818152602001828054600181600116156101000203166002900480156107515780601f1061072657610100808354040283529160200191610751565b820191906000526020600020905b81548152906001019060200180831161073457829003601f168201915b505050505081565b60008060008373ffffffffffffffffffffffffffffffffffffffff1673ffffffffffffffffffffffffffffffffffffffff168152602001908152602001600020549050919050565b60048054600181600116156101000203166002900480601f0160208091040260200160405190810160405280929190818152602001828054600181600116156101000203166002900480156108375780601f1061080c57610100808354040283529160200191610837565b820191906000526020600020905b81548152906001019060200180831161081a57829003601f168201915b505050505081565b60055481565b60006109086108526109bd565b8461090385604051806060016040528060258152602001611097602591396001600061087c6109bd565b73ffffffffffffffffffffffffffffffffffffffff1673ffffffffffffffffffffffffffffffffffffffff16815260200190815260200160002060008a73ffffffffffffffffffffffffffffffffffffffff1673ffffffffffffffffffffffffffffffffffffffff16815260200190815260200160002054610e729092919063ffffffff16565b6109c5565b6001905092915050565b600061092661091f6109bd565b8484610bbc565b6001905092915050565b6000600160008473ffffffffffffffffffffffffffffffffffffffff1673ffffffffffffffffffffffffffffffffffffffff16815260200190815260200160002060008373ffffffffffffffffffffffffffffffffffffffff1673ffffffffffffffffffffffffffffffffffffffff16815260200190815260200160002054905092915050565b60065481565b600033905090565b600073ffffffffffffffffffffffffffffffffffffffff168373ffffffffffffffffffffffffffffffffffffffff161415610a4b576040517f08c379a00000000000000000000000000000000000000000000000000000000081526004018080602001828103825260248152602001806110736024913960400191505060405180910390fd5b600073ffffffffffffffffffffffffffffffffffffffff168273ffffffffffffffffffffffffffffffffffffffff161415610ad1576040517f08c379a0000000000000000000000000000000000000000000000000000000008152600401808060200182810382526022815260200180610fde6022913960400191505060405180910390fd5b80600160008573ffffffffffffffffffffffffffffffffffffffff1673ffffffffffffffffffffffffffffffffffffffff16815260200190815260200160002060008473ffffffffffffffffffffffffffffffffffffffff1673ffffffffffffffffffffffffffffffffffffffff168152602001908152602001600020819055508173ffffffffffffffffffffffffffffffffffffffff168373ffffffffffffffffffffffffffffffffffffffff167f8c5be1e5ebec7d5bd14f71427d1e84f3dd0314c0f7b2291e5b200ac8c7c3b925836040518082815260200191505060405180910390a3505050565b600073ffffffffffffffffffffffffffffffffffffffff168373ffffffffffffffffffffffffffffffffffffffff161415610c42576040517f08c379a000000000000000000000000000000000000000000000000000000000815260040180806020018281038252602581526020018061104e6025913960400191505060405180910390fd5b600073ffffffffffffffffffffffffffffffffffffffff168273ffffffffffffffffffffffffffffffffffffffff161415610cc8576040517f08c379a0000000000000000000000000000000000000000000000000000000008152600401808060200182810382526023815260200180610fbb6023913960400191505060405180910390fd5b610d3381604051806060016040528060268152602001611000602691396000808773ffffffffffffffffffffffffffffffffffffffff1673ffffffffffffffffffffffffffffffffffffffff16815260200190815260200160002054610e729092919063ffffffff16565b6000808573ffffffffffffffffffffffffffffffffffffffff1673ffffffffffffffffffffffffffffffffffffffff16815260200190815260200160002081905550610dc6816000808573ffffffffffffffffffffffffffffffffffffffff1673ffffffffffffffffffffffffffffffffffffffff16815260200190815260200160002054610f3290919063ffffffff16565b6000808473ffffffffffffffffffffffffffffffffffffffff1673ffffffffffffffffffffffffffffffffffffffff168152602001908152602001600020819055508173ffffffffffffffffffffffffffffffffffffffff168373ffffffffffffffffffffffffffffffffffffffff167fddf252ad1be2c89b69c2b068fc378daa952ba7f163c4a11628f55a4df523b3ef836040518082815260200191505060405180910390a3505050565b6000838311158290610f1f576040517f08c379a00000000000000000000000000000000000000000000000000000000081526004018080602001828103825283818151815260200191508051906020019080838360005b83811015610ee4578082015181840152602081019050610ec9565b50505050905090810190601f168015610f115780820380516001836020036101000a031916815260200191505b509250505060405180910390fd5b5060008385039050809150509392505050565b600080828401905083811015610fb0576040517f08c379a000000000000000000000000000000000000000000000000000000000815260040180806020018281038252601b8152602001807f536166654d6174683a206164646974696f6e206f766572666c6f77000000000081525060200191505060405180910390fd5b809150509291505056fe45524332303a207472616e7366657220746f20746865207a65726f206164647265737345524332303a20617070726f766520746f20746865207a65726f206164647265737345524332303a207472616e7366657220616d6f756e7420657863656564732062616c616e636545524332303a207472616e7366657220616d6f756e74206578636565647320616c6c6f77616e636545524332303a207472616e736665722066726f6d20746865207a65726f206164647265737345524332303a20617070726f76652066726f6d20746865207a65726f206164647265737345524332303a2064656372656173656420616c6c6f77616e63652062656c6f77207a65726fa265627a7a72315820316fa5e36d9590b00f93608cf3dbab4e5ea2d10ef66accbb1ea488c0d6f8ed7364736f6c634300050c003245524332303a207472616e7366657220746f20746865207a65726f20616464726573734d61726b657420494e464f3a20496e666f726d6174696f6e206e6f7420666f756e6445524332303a20617070726f766520746f20746865207a65726f206164647265737345524332303a207472616e7366657220616d6f756e7420657863656564732062616c616e63654552524f523a20746865206e756d626572206f6620736861726573546f6b656e20646f6573206e6f74206d6174636820746865206465636c61726564536166654d6174683a206d756c7469706c69636174696f6e206f766572666c6f7745524332303a207472616e7366657220616d6f756e74206578636565647320616c6c6f77616e63654552524f523a20746865206e756d626572206f6620546f6b656e20646f6573206e6f74206d6174636820746865206465636c6172656445524332303a207472616e736665722066726f6d20746865207a65726f206164647265737345524332303a20617070726f76652066726f6d20746865207a65726f206164647265737345524332303a2064656372656173656420616c6c6f77616e63652062656c6f77207a65726fa265627a7a723158201bbe7e0f426c73e14f5ed47bfea5151538905ec3d93eec2e45d8b4f908d8e18a64736f6c634300050c0032",
  "source": "pragma solidity >=0.4.21 < 0.7.0;\r\n\r\nimport \"@openzeppelin/contracts/math/SafeMath.sol\";\r\nimport \"@openzeppelin/contracts/ownership/Ownable.sol\";\r\nimport \"@openzeppelin/contracts/token/ERC20/ERC20.sol\";\r\nimport './Project.sol';\r\n\r\ncontract Market is ERC20 {\r\n     using SafeMath for uint256;\r\n     using SafeMath for uint32;\r\n     using SafeMath for uint16;\r\n\r\n     event NewProject(string name);\r\n     event TransferProject(\r\n          address _from,\r\n          address _to,\r\n          string _nameProject\r\n      );\r\n\r\n     mapping(string => Project) public projectMap;\r\n     mapping(string => uint) private _availableQuantityProject;\r\n     \r\n     modifier checkTokenMarket(string memory _nameProject) {\r\n       require(address(projectMap[_nameProject]) != address(0), \"Market INFO: Information not found\");\r\n       _;\r\n    }\r\n\r\n    function createTokenMarket(\r\n        string memory _name,\r\n        string memory _description,\r\n        uint256 _price,\r\n        uint256 _totalProject\r\n   )\r\n      public\r\n    {\r\n        Project project = new Project(_name, _description, _price, _totalProject);\r\n        projectMap[_name] = project;\r\n        emit NewProject(_name);\r\n    }\r\n\r\n    function getPrice(string memory _name) public view checkTokenMarket(_name) returns(uint256) {\r\n        return projectMap[_name].tokenPrice();\r\n    }\r\n\r\n    function getDescriptionProject(string memory _name) public view checkTokenMarket(_name) returns (string memory) {\r\n        return projectMap[_name].description();\r\n    }\r\n\r\n    function getAvailableQuantityProject(string memory _name) public view checkTokenMarket(_name) returns(uint256) {\r\n        return _availableQuantityProject[_name];\r\n    }\r\n\r\n    function traiderBuyToken(string memory _nameToken, uint256 _countToken) public payable {\r\n        require(getAvailableQuantityProject(_nameToken)>=_countToken, \"ERROR: the number of Token does not match the declared\");\r\n        require(getPrice(_nameToken).mul(_countToken) <= balanceOf(msg.sender), \"ERROR: the number of Token does not match the declared\");\r\n        require(projectMap[_nameToken].transfer(msg.sender, _countToken),\"Market: transaction error\");\r\n        uint totalPrice = getPrice(_nameToken).mul(_countToken);\r\n        msg.sender.transfer(totalPrice);\r\n        subAvailableQuantityProject(_nameToken, _countToken);\r\n    }\r\n\r\n    function traiderSellToken(string memory _nameToken, uint _countToken) public payable {\r\n        require(balanceOf(msg.sender) >= _countToken, \"ERROR: the number of sharesToken does not match the declared\");\r\n        uint totalPrice = getPrice(_nameToken).mul(_countToken);\r\n        require(projectMap[_nameToken].transferFrom(msg.sender, address(this), _countToken), \"Market: transaction error\");\r\n        addAvailableQuantityProject(_nameToken, _countToken);\r\n        transfer(msg.sender, totalPrice);\r\n    }\r\n\r\n    function addAvailableQuantityProject(string memory _name, uint _countToken) internal {\r\n        _availableQuantityProject[_name] = _availableQuantityProject[_name].add(_countToken);\r\n    }\r\n\r\n    function subAvailableQuantityProject(string memory _name, uint _countToken) internal {\r\n        _availableQuantityProject[_name] = _availableQuantityProject[_name].sub(_countToken);\r\n    }\r\n}",
  "sourcePath": "D://frontend//Solidity/stock market/stock-market-solidity/contracts/Market.sol",
  "compiler": {
    "name": "solc",
    "version": "0.5.12+commit.7709ece9.Emscripten.clang"
  },
  "schemaVersion": "3.0.18",
  "updatedAt": "2019-11-20T21:39:05.584Z",
  "devdoc": {
    "methods": {
      "allowance(address,address)": {
        "details": "See {IERC20-allowance}."
      },
      "approve(address,uint256)": {
        "details": "See {IERC20-approve}.     * Requirements:     * - `spender` cannot be the zero address."
      },
      "balanceOf(address)": {
        "details": "See {IERC20-balanceOf}."
      },
      "decreaseAllowance(address,uint256)": {
        "details": "Atomically decreases the allowance granted to `spender` by the caller.     * This is an alternative to {approve} that can be used as a mitigation for problems described in {IERC20-approve}.     * Emits an {Approval} event indicating the updated allowance.     * Requirements:     * - `spender` cannot be the zero address. - `spender` must have allowance for the caller of at least `subtractedValue`."
      },
      "increaseAllowance(address,uint256)": {
        "details": "Atomically increases the allowance granted to `spender` by the caller.     * This is an alternative to {approve} that can be used as a mitigation for problems described in {IERC20-approve}.     * Emits an {Approval} event indicating the updated allowance.     * Requirements:     * - `spender` cannot be the zero address."
      },
      "totalSupply()": {
        "details": "See {IERC20-totalSupply}."
      },
      "transfer(address,uint256)": {
        "details": "See {IERC20-transfer}.     * Requirements:     * - `recipient` cannot be the zero address. - the caller must have a balance of at least `amount`."
      },
      "transferFrom(address,address,uint256)": {
        "details": "See {IERC20-transferFrom}.     * Emits an {Approval} event indicating the updated allowance. This is not required by the EIP. See the note at the beginning of {ERC20};     * Requirements: - `sender` and `recipient` cannot be the zero address. - `sender` must have a balance of at least `amount`. - the caller must have allowance for `sender`'s tokens of at least `amount`."
      }
    }
  },
  "userdoc": {
    "methods": {}
  }
}