{
  "contractName": "Market",
  "abi": [
    {
      "anonymous": false,
      "inputs": [
        {
          "indexed": true,
          "internalType": "address",
          "name": "owner",
          "type": "address"
        },
        {
          "indexed": true,
          "internalType": "address",
          "name": "spender",
          "type": "address"
        },
        {
          "indexed": false,
          "internalType": "uint256",
          "name": "value",
          "type": "uint256"
        }
      ],
      "name": "Approval",
      "type": "event"
    },
    {
      "anonymous": false,
      "inputs": [
        {
          "indexed": false,
          "internalType": "string",
          "name": "name",
          "type": "string"
        }
      ],
      "name": "NewShare",
      "type": "event"
    },
    {
      "anonymous": false,
      "inputs": [
        {
          "indexed": true,
          "internalType": "address",
          "name": "previousOwner",
          "type": "address"
        },
        {
          "indexed": true,
          "internalType": "address",
          "name": "newOwner",
          "type": "address"
        }
      ],
      "name": "OwnershipTransferred",
      "type": "event"
    },
    {
      "anonymous": false,
      "inputs": [
        {
          "indexed": true,
          "internalType": "address",
          "name": "from",
          "type": "address"
        },
        {
          "indexed": true,
          "internalType": "address",
          "name": "to",
          "type": "address"
        },
        {
          "indexed": false,
          "internalType": "uint256",
          "name": "value",
          "type": "uint256"
        }
      ],
      "name": "Transfer",
      "type": "event"
    },
    {
      "anonymous": false,
      "inputs": [
        {
          "indexed": false,
          "internalType": "address",
          "name": "_from",
          "type": "address"
        },
        {
          "indexed": false,
          "internalType": "address",
          "name": "_to",
          "type": "address"
        },
        {
          "indexed": false,
          "internalType": "string",
          "name": "_nameShare",
          "type": "string"
        }
      ],
      "name": "TransferShare",
      "type": "event"
    },
    {
      "constant": true,
      "inputs": [
        {
          "internalType": "address",
          "name": "owner",
          "type": "address"
        },
        {
          "internalType": "address",
          "name": "spender",
          "type": "address"
        }
      ],
      "name": "allowance",
      "outputs": [
        {
          "internalType": "uint256",
          "name": "",
          "type": "uint256"
        }
      ],
      "payable": false,
      "stateMutability": "view",
      "type": "function"
    },
    {
      "constant": false,
      "inputs": [
        {
          "internalType": "address",
          "name": "spender",
          "type": "address"
        },
        {
          "internalType": "uint256",
          "name": "amount",
          "type": "uint256"
        }
      ],
      "name": "approve",
      "outputs": [
        {
          "internalType": "bool",
          "name": "",
          "type": "bool"
        }
      ],
      "payable": false,
      "stateMutability": "nonpayable",
      "type": "function"
    },
    {
      "constant": true,
      "inputs": [
        {
          "internalType": "address",
          "name": "account",
          "type": "address"
        }
      ],
      "name": "balanceOf",
      "outputs": [
        {
          "internalType": "uint256",
          "name": "",
          "type": "uint256"
        }
      ],
      "payable": false,
      "stateMutability": "view",
      "type": "function"
    },
    {
      "constant": false,
      "inputs": [
        {
          "internalType": "address",
          "name": "spender",
          "type": "address"
        },
        {
          "internalType": "uint256",
          "name": "subtractedValue",
          "type": "uint256"
        }
      ],
      "name": "decreaseAllowance",
      "outputs": [
        {
          "internalType": "bool",
          "name": "",
          "type": "bool"
        }
      ],
      "payable": false,
      "stateMutability": "nonpayable",
      "type": "function"
    },
    {
      "constant": false,
      "inputs": [
        {
          "internalType": "address",
          "name": "spender",
          "type": "address"
        },
        {
          "internalType": "uint256",
          "name": "addedValue",
          "type": "uint256"
        }
      ],
      "name": "increaseAllowance",
      "outputs": [
        {
          "internalType": "bool",
          "name": "",
          "type": "bool"
        }
      ],
      "payable": false,
      "stateMutability": "nonpayable",
      "type": "function"
    },
    {
      "constant": true,
      "inputs": [
        {
          "internalType": "string",
          "name": "",
          "type": "string"
        }
      ],
      "name": "indexShareArray",
      "outputs": [
        {
          "internalType": "uint256",
          "name": "",
          "type": "uint256"
        }
      ],
      "payable": false,
      "stateMutability": "view",
      "type": "function"
    },
    {
      "constant": true,
      "inputs": [],
      "name": "isOwner",
      "outputs": [
        {
          "internalType": "bool",
          "name": "",
          "type": "bool"
        }
      ],
      "payable": false,
      "stateMutability": "view",
      "type": "function"
    },
    {
      "constant": true,
      "inputs": [],
      "name": "owner",
      "outputs": [
        {
          "internalType": "address",
          "name": "",
          "type": "address"
        }
      ],
      "payable": false,
      "stateMutability": "view",
      "type": "function"
    },
    {
      "constant": false,
      "inputs": [],
      "name": "renounceOwnership",
      "outputs": [],
      "payable": false,
      "stateMutability": "nonpayable",
      "type": "function"
    },
    {
      "constant": true,
      "inputs": [
        {
          "internalType": "uint256",
          "name": "",
          "type": "uint256"
        }
      ],
      "name": "shares",
      "outputs": [
        {
          "internalType": "string",
          "name": "name",
          "type": "string"
        },
        {
          "internalType": "string",
          "name": "descriptionShare",
          "type": "string"
        },
        {
          "internalType": "uint256",
          "name": "priceShare",
          "type": "uint256"
        },
        {
          "internalType": "uint256",
          "name": "totalCountShares",
          "type": "uint256"
        },
        {
          "internalType": "uint256",
          "name": "availableQuantityShares",
          "type": "uint256"
        }
      ],
      "payable": false,
      "stateMutability": "view",
      "type": "function"
    },
    {
      "constant": true,
      "inputs": [],
      "name": "totalSupply",
      "outputs": [
        {
          "internalType": "uint256",
          "name": "",
          "type": "uint256"
        }
      ],
      "payable": false,
      "stateMutability": "view",
      "type": "function"
    },
    {
      "constant": true,
      "inputs": [
        {
          "internalType": "address",
          "name": "",
          "type": "address"
        },
        {
          "internalType": "string",
          "name": "",
          "type": "string"
        }
      ],
      "name": "traiderCountShare",
      "outputs": [
        {
          "internalType": "uint256",
          "name": "",
          "type": "uint256"
        }
      ],
      "payable": false,
      "stateMutability": "view",
      "type": "function"
    },
    {
      "constant": false,
      "inputs": [
        {
          "internalType": "address",
          "name": "recipient",
          "type": "address"
        },
        {
          "internalType": "uint256",
          "name": "amount",
          "type": "uint256"
        }
      ],
      "name": "transfer",
      "outputs": [
        {
          "internalType": "bool",
          "name": "",
          "type": "bool"
        }
      ],
      "payable": false,
      "stateMutability": "nonpayable",
      "type": "function"
    },
    {
      "constant": false,
      "inputs": [
        {
          "internalType": "address",
          "name": "sender",
          "type": "address"
        },
        {
          "internalType": "address",
          "name": "recipient",
          "type": "address"
        },
        {
          "internalType": "uint256",
          "name": "amount",
          "type": "uint256"
        }
      ],
      "name": "transferFrom",
      "outputs": [
        {
          "internalType": "bool",
          "name": "",
          "type": "bool"
        }
      ],
      "payable": false,
      "stateMutability": "nonpayable",
      "type": "function"
    },
    {
      "constant": false,
      "inputs": [
        {
          "internalType": "address",
          "name": "newOwner",
          "type": "address"
        }
      ],
      "name": "transferOwnership",
      "outputs": [],
      "payable": false,
      "stateMutability": "nonpayable",
      "type": "function"
    },
    {
      "constant": false,
      "inputs": [
        {
          "internalType": "string",
          "name": "_name",
          "type": "string"
        },
        {
          "internalType": "string",
          "name": "_description",
          "type": "string"
        }
      ],
      "name": "createShareMarket",
      "outputs": [],
      "payable": false,
      "stateMutability": "nonpayable",
      "type": "function"
    },
    {
      "constant": true,
      "inputs": [
        {
          "internalType": "string",
          "name": "_name",
          "type": "string"
        }
      ],
      "name": "getPrice",
      "outputs": [
        {
          "internalType": "uint256",
          "name": "",
          "type": "uint256"
        }
      ],
      "payable": false,
      "stateMutability": "view",
      "type": "function"
    },
    {
      "constant": true,
      "inputs": [
        {
          "internalType": "string",
          "name": "_name",
          "type": "string"
        }
      ],
      "name": "getDescriptionShare",
      "outputs": [
        {
          "internalType": "string",
          "name": "",
          "type": "string"
        }
      ],
      "payable": false,
      "stateMutability": "view",
      "type": "function"
    },
    {
      "constant": true,
      "inputs": [
        {
          "internalType": "string",
          "name": "_name",
          "type": "string"
        }
      ],
      "name": "getAvailableQuantityShares",
      "outputs": [
        {
          "internalType": "uint256",
          "name": "",
          "type": "uint256"
        }
      ],
      "payable": false,
      "stateMutability": "view",
      "type": "function"
    },
    {
      "constant": false,
      "inputs": [
        {
          "internalType": "string",
          "name": "_nameShare",
          "type": "string"
        },
        {
          "internalType": "uint256",
          "name": "_countShare",
          "type": "uint256"
        }
      ],
      "name": "traiderBuyShare",
      "outputs": [],
      "payable": true,
      "stateMutability": "payable",
      "type": "function"
    },
    {
      "constant": false,
      "inputs": [
        {
          "internalType": "string",
          "name": "_nameShare",
          "type": "string"
        },
        {
          "internalType": "uint256",
          "name": "_countShare",
          "type": "uint256"
        }
      ],
      "name": "traiderSellShare",
      "outputs": [],
      "payable": true,
      "stateMutability": "payable",
      "type": "function"
    }
  ],
  "bytecode": "0x60806040526100126100d460201b60201c565b600160006101000a81548173ffffffffffffffffffffffffffffffffffffffff021916908373ffffffffffffffffffffffffffffffffffffffff160217905550600160009054906101000a900473ffffffffffffffffffffffffffffffffffffffff1673ffffffffffffffffffffffffffffffffffffffff16600073ffffffffffffffffffffffffffffffffffffffff167f8be0079c531659141344cd1fd0a4f28419497f9722a3daafe3b4186f6b6457e060405160405180910390a36100dc565b600033905090565b613040806100eb6000396000f3fe60806040526004361061012a5760003560e01c8063715018a6116100ab578063a9059cbb1161006f578063a9059cbb14610a9a578063dd62ed3e14610b0d578063e4252c0514610b92578063e5dc02e014610c57578063f2fde38b14610d33578063ff22f97f14610d845761012a565b8063715018a6146108495780638da5cb5b146108605780638f32d59b146108b757806399723c22146108e6578063a457c2d714610a275761012a565b80634fe58f17116100f25780634fe58f1714610432578063524f3889146104f757806357a858fc146105d35780636e547ee31461070857806370a08231146107e45761012a565b8063095ea7b31461012f57806318160ddd146101a257806323b872dd146101cd578063343580651461026057806339509351146103bf575b600080fd5b34801561013b57600080fd5b506101886004803603604081101561015257600080fd5b81019080803573ffffffffffffffffffffffffffffffffffffffff16906020019092919080359060200190929190505050610e80565b604051808215151515815260200191505060405180910390f35b3480156101ae57600080fd5b506101b7610e9e565b6040518082815260200191505060405180910390f35b3480156101d957600080fd5b50610246600480360360608110156101f057600080fd5b81019080803573ffffffffffffffffffffffffffffffffffffffff169060200190929190803573ffffffffffffffffffffffffffffffffffffffff16906020019092919080359060200190929190505050610ea8565b604051808215151515815260200191505060405180910390f35b34801561026c57600080fd5b506103bd6004803603604081101561028357600080fd5b81019080803590602001906401000000008111156102a057600080fd5b8201836020820111156102b257600080fd5b803590602001918460018302840111640100000000831117156102d457600080fd5b91908080601f016020809104026020016040519081016040528093929190818152602001838380828437600081840152601f19601f8201169050808301925050505050505091929192908035906020019064010000000081111561033757600080fd5b82018360208201111561034957600080fd5b8035906020019184600183028401116401000000008311171561036b57600080fd5b91908080601f016020809104026020016040519081016040528093929190818152602001838380828437600081840152601f19601f820116905080830192505050505050509192919290505050610f81565b005b3480156103cb57600080fd5b50610418600480360360408110156103e257600080fd5b81019080803573ffffffffffffffffffffffffffffffffffffffff16906020019092919080359060200190929190505050611148565b604051808215151515815260200191505060405180910390f35b6104f56004803603604081101561044857600080fd5b810190808035906020019064010000000081111561046557600080fd5b82018360208201111561047757600080fd5b8035906020019184600183028401116401000000008311171561049957600080fd5b91908080601f016020809104026020016040519081016040528093929190818152602001838380828437600081840152601f19601f820116905080830192505050505050509192919290803590602001909291905050506111fb565b005b34801561050357600080fd5b506105bd6004803603602081101561051a57600080fd5b810190808035906020019064010000000081111561053757600080fd5b82018360208201111561054957600080fd5b8035906020019184600183028401116401000000008311171561056b57600080fd5b91908080601f016020809104026020016040519081016040528093929190818152602001838380828437600081840152601f19601f820116905080830192505050505050509192919290505050611332565b6040518082815260200191505060405180910390f35b3480156105df57600080fd5b5061060c600480360360208110156105f657600080fd5b81019080803590602001909291905050506114ba565b604051808060200180602001868152602001858152602001848152602001838103835288818151815260200191508051906020019080838360005b83811015610662578082015181840152602081019050610647565b50505050905090810190601f16801561068f5780820380516001836020036101000a031916815260200191505b50838103825287818151815260200191508051906020019080838360005b838110156106c85780820151818401526020810190506106ad565b50505050905090810190601f1680156106f55780820380516001836020036101000a031916815260200191505b5097505050505050505060405180910390f35b34801561071457600080fd5b506107ce6004803603602081101561072b57600080fd5b810190808035906020019064010000000081111561074857600080fd5b82018360208201111561075a57600080fd5b8035906020019184600183028401116401000000008311171561077c57600080fd5b91908080601f016020809104026020016040519081016040528093929190818152602001838380828437600081840152601f19601f82011690508083019250505050505050919291929050505061162d565b6040518082815260200191505060405180910390f35b3480156107f057600080fd5b506108336004803603602081101561080757600080fd5b81019080803573ffffffffffffffffffffffffffffffffffffffff1690602001909291905050506117b5565b6040518082815260200191505060405180910390f35b34801561085557600080fd5b5061085e6117fe565b005b34801561086c57600080fd5b50610875611939565b604051808273ffffffffffffffffffffffffffffffffffffffff1673ffffffffffffffffffffffffffffffffffffffff16815260200191505060405180910390f35b3480156108c357600080fd5b506108cc611963565b604051808215151515815260200191505060405180910390f35b3480156108f257600080fd5b506109ac6004803603602081101561090957600080fd5b810190808035906020019064010000000081111561092657600080fd5b82018360208201111561093857600080fd5b8035906020019184600183028401116401000000008311171561095a57600080fd5b91908080601f016020809104026020016040519081016040528093929190818152602001838380828437600081840152601f19601f8201169050808301925050505050505091929192905050506119c2565b6040518080602001828103825283818151815260200191508051906020019080838360005b838110156109ec5780820151818401526020810190506109d1565b50505050905090810190601f168015610a195780820380516001836020036101000a031916815260200191505b509250505060405180910390f35b348015610a3357600080fd5b50610a8060048036036040811015610a4a57600080fd5b81019080803573ffffffffffffffffffffffffffffffffffffffff16906020019092919080359060200190929190505050611be2565b604051808215151515815260200191505060405180910390f35b348015610aa657600080fd5b50610af360048036036040811015610abd57600080fd5b81019080803573ffffffffffffffffffffffffffffffffffffffff16906020019092919080359060200190929190505050611caf565b604051808215151515815260200191505060405180910390f35b348015610b1957600080fd5b50610b7c60048036036040811015610b3057600080fd5b81019080803573ffffffffffffffffffffffffffffffffffffffff169060200190929190803573ffffffffffffffffffffffffffffffffffffffff169060200190929190505050611ccd565b6040518082815260200191505060405180910390f35b610c5560048036036040811015610ba857600080fd5b8101908080359060200190640100000000811115610bc557600080fd5b820183602082011115610bd757600080fd5b80359060200191846001830284011164010000000083111715610bf957600080fd5b91908080601f016020809104026020016040519081016040528093929190818152602001838380828437600081840152601f19601f82011690508083019250505050505050919291929080359060200190929190505050611d54565b005b348015610c6357600080fd5b50610d1d60048036036020811015610c7a57600080fd5b8101908080359060200190640100000000811115610c9757600080fd5b820183602082011115610ca957600080fd5b80359060200191846001830284011164010000000083111715610ccb57600080fd5b91908080601f016020809104026020016040519081016040528093929190818152602001838380828437600081840152601f19601f820116905080830192505050505050509192919290505050611e69565b6040518082815260200191505060405180910390f35b348015610d3f57600080fd5b50610d8260048036036020811015610d5657600080fd5b81019080803573ffffffffffffffffffffffffffffffffffffffff169060200190929190505050611e97565b005b348015610d9057600080fd5b50610e6a60048036036040811015610da757600080fd5b81019080803573ffffffffffffffffffffffffffffffffffffffff16906020019092919080359060200190640100000000811115610de457600080fd5b820183602082011115610df657600080fd5b80359060200191846001830284011164010000000083111715610e1857600080fd5b91908080601f016020809104026020016040519081016040528093929190818152602001838380828437600081840152601f19601f820116905080830192505050505050509192919290505050611f1d565b6040518082815260200191505060405180910390f35b6000610e94610e8d611f58565b8484611f60565b6001905092915050565b6000600454905090565b6000610eb5848484612157565b610f7684610ec1611f58565b610f7185604051806060016040528060288152602001612f7660289139600360008b73ffffffffffffffffffffffffffffffffffffffff1673ffffffffffffffffffffffffffffffffffffffff1681526020019081526020016000206000610f27611f58565b73ffffffffffffffffffffffffffffffffffffffff1673ffffffffffffffffffffffffffffffffffffffff168152602001908152602001600020546124119092919063ffffffff16565b611f60565b600190509392505050565b6000600160056040518060a0016040528086815260200185815260200160018152602001606481526020016000815250908060018154018082558091505090600182039060005260206000209060050201600090919290919091506000820151816000019080519060200190610ff8929190612dc5565b506020820151816001019080519060200190611015929190612dc5565b506040820151816002015560608201518160030155608082015181600401555050039050806006846040518082805190602001908083835b60208310611070578051825260208201915060208101905060208303925061104d565b6001836020036101000a0380198251168184511680821785525050505050509050019150509081526020016040518091039020819055507fa5628c4cf3642bfd69f6216deea794050984c2777ab579138857f176c9935199836040518080602001828103825283818151815260200191508051906020019080838360005b838110156111095780820151818401526020810190506110ee565b50505050905090810190601f1680156111365780820380516001836020036101000a031916815260200191505b509250505060405180910390a1505050565b60006111f1611155611f58565b846111ec8560036000611166611f58565b73ffffffffffffffffffffffffffffffffffffffff1673ffffffffffffffffffffffffffffffffffffffff16815260200190815260200160002060008973ffffffffffffffffffffffffffffffffffffffff1673ffffffffffffffffffffffffffffffffffffffff168152602001908152602001600020546124d190919063ffffffff16565b611f60565b6001905092915050565b806000803373ffffffffffffffffffffffffffffffffffffffff1673ffffffffffffffffffffffffffffffffffffffff168152602001908152602001600020836040518082805190602001908083835b6020831061126e578051825260208201915060208101905060208303925061124b565b6001836020036101000a03801982511681845116808217855250505050505090500191505090815260200160405180910390205410156112f9576040517f08c379a0000000000000000000000000000000000000000000000000000000008152600401808060200182810382526037815260200180612f1e6037913960400191505060405180910390fd5b60006113168261130885611332565b61255990919063ffffffff16565b90506113223382611caf565b5061132d83836125df565b505050565b600081600073ffffffffffffffffffffffffffffffffffffffff166006826040518082805190602001908083835b602083106113835780518252602082019150602081019050602083039250611360565b6001836020036101000a03801982511681845116808217855250505050505090500191505090815260200160405180910390205473ffffffffffffffffffffffffffffffffffffffff161415611424576040517f08c379a0000000000000000000000000000000000000000000000000000000008152600401808060200182810382526022815260200180612e8e6022913960400191505060405180910390fd5b60006006846040518082805190602001908083835b6020831061145c5780518252602082019150602081019050602083039250611439565b6001836020036101000a03801982511681845116808217855250505050505090500191505090815260200160405180910390205490506005818154811061149f57fe5b90600052602060002090600502016002015492505050919050565b600581815481106114c757fe5b9060005260206000209060050201600091509050806000018054600181600116156101000203166002900480601f0160208091040260200160405190810160405280929190818152602001828054600181600116156101000203166002900480156115735780601f1061154857610100808354040283529160200191611573565b820191906000526020600020905b81548152906001019060200180831161155657829003601f168201915b505050505090806001018054600181600116156101000203166002900480601f0160208091040260200160405190810160405280929190818152602001828054600181600116156101000203166002900480156116115780601f106115e657610100808354040283529160200191611611565b820191906000526020600020905b8154815290600101906020018083116115f457829003601f168201915b5050505050908060020154908060030154908060040154905085565b600081600073ffffffffffffffffffffffffffffffffffffffff166006826040518082805190602001908083835b6020831061167e578051825260208201915060208101905060208303925061165b565b6001836020036101000a03801982511681845116808217855250505050505090500191505090815260200160405180910390205473ffffffffffffffffffffffffffffffffffffffff16141561171f576040517f08c379a0000000000000000000000000000000000000000000000000000000008152600401808060200182810382526022815260200180612e8e6022913960400191505060405180910390fd5b60006006846040518082805190602001908083835b602083106117575780518252602082019150602081019050602083039250611734565b6001836020036101000a03801982511681845116808217855250505050505090500191505090815260200160405180910390205490506005818154811061179a57fe5b90600052602060002090600502016004015492505050919050565b6000600260008373ffffffffffffffffffffffffffffffffffffffff1673ffffffffffffffffffffffffffffffffffffffff168152602001908152602001600020549050919050565b611806611963565b611878576040517f08c379a00000000000000000000000000000000000000000000000000000000081526004018080602001828103825260208152602001807f4f776e61626c653a2063616c6c6572206973206e6f7420746865206f776e657281525060200191505060405180910390fd5b600073ffffffffffffffffffffffffffffffffffffffff16600160009054906101000a900473ffffffffffffffffffffffffffffffffffffffff1673ffffffffffffffffffffffffffffffffffffffff167f8be0079c531659141344cd1fd0a4f28419497f9722a3daafe3b4186f6b6457e060405160405180910390a36000600160006101000a81548173ffffffffffffffffffffffffffffffffffffffff021916908373ffffffffffffffffffffffffffffffffffffffff160217905550565b6000600160009054906101000a900473ffffffffffffffffffffffffffffffffffffffff16905090565b6000600160009054906101000a900473ffffffffffffffffffffffffffffffffffffffff1673ffffffffffffffffffffffffffffffffffffffff166119a6611f58565b73ffffffffffffffffffffffffffffffffffffffff1614905090565b606081600073ffffffffffffffffffffffffffffffffffffffff166006826040518082805190602001908083835b60208310611a1357805182526020820191506020810190506020830392506119f0565b6001836020036101000a03801982511681845116808217855250505050505090500191505090815260200160405180910390205473ffffffffffffffffffffffffffffffffffffffff161415611ab4576040517f08c379a0000000000000000000000000000000000000000000000000000000008152600401808060200182810382526022815260200180612e8e6022913960400191505060405180910390fd5b60006006846040518082805190602001908083835b60208310611aec5780518252602082019150602081019050602083039250611ac9565b6001836020036101000a038019825116818451168082178552505050505050905001915050908152602001604051809103902054905060058181548110611b2f57fe5b90600052602060002090600502016001018054600181600116156101000203166002900480601f016020809104026020016040519081016040528092919081815260200182805460018160011615610100020316600290048015611bd45780601f10611ba957610100808354040283529160200191611bd4565b820191906000526020600020905b815481529060010190602001808311611bb757829003601f168201915b505050505092505050919050565b6000611ca5611bef611f58565b84611ca085604051806060016040528060258152602001612fe76025913960036000611c19611f58565b73ffffffffffffffffffffffffffffffffffffffff1673ffffffffffffffffffffffffffffffffffffffff16815260200190815260200160002060008a73ffffffffffffffffffffffffffffffffffffffff1673ffffffffffffffffffffffffffffffffffffffff168152602001908152602001600020546124119092919063ffffffff16565b611f60565b6001905092915050565b6000611cc3611cbc611f58565b8484612157565b6001905092915050565b6000600360008473ffffffffffffffffffffffffffffffffffffffff1673ffffffffffffffffffffffffffffffffffffffff16815260200190815260200160002060008373ffffffffffffffffffffffffffffffffffffffff1673ffffffffffffffffffffffffffffffffffffffff16815260200190815260200160002054905092915050565b80611d5e8361162d565b1015611db5576040517f08c379a0000000000000000000000000000000000000000000000000000000008152600401808060200182810382526037815260200180612f1e6037913960400191505060405180910390fd5b611dbe336117b5565b611dd982611dcb85611332565b61255990919063ffffffff16565b1115611e30576040517f08c379a0000000000000000000000000000000000000000000000000000000008152600401808060200182810382526037815260200180612f1e6037913960400191505060405180910390fd5b6000611e4d82611e3f85611332565b61255990919063ffffffff16565b9050611e593082611caf565b50611e64838361290a565b505050565b6006818051602081018201805184825260208301602085012081835280955050505050506000915090505481565b611e9f611963565b611f11576040517f08c379a00000000000000000000000000000000000000000000000000000000081526004018080602001828103825260208152602001807f4f776e61626c653a2063616c6c6572206973206e6f7420746865206f776e657281525060200191505060405180910390fd5b611f1a81612c35565b50565b600060205281600052604060002081805160208101820180518482526020830160208501208183528095505050505050600091509150505481565b600033905090565b600073ffffffffffffffffffffffffffffffffffffffff168373ffffffffffffffffffffffffffffffffffffffff161415611fe6576040517f08c379a0000000000000000000000000000000000000000000000000000000008152600401808060200182810382526024815260200180612fc36024913960400191505060405180910390fd5b600073ffffffffffffffffffffffffffffffffffffffff168273ffffffffffffffffffffffffffffffffffffffff16141561206c576040517f08c379a0000000000000000000000000000000000000000000000000000000008152600401808060200182810382526022815260200180612ed66022913960400191505060405180910390fd5b80600360008573ffffffffffffffffffffffffffffffffffffffff1673ffffffffffffffffffffffffffffffffffffffff16815260200190815260200160002060008473ffffffffffffffffffffffffffffffffffffffff1673ffffffffffffffffffffffffffffffffffffffff168152602001908152602001600020819055508173ffffffffffffffffffffffffffffffffffffffff168373ffffffffffffffffffffffffffffffffffffffff167f8c5be1e5ebec7d5bd14f71427d1e84f3dd0314c0f7b2291e5b200ac8c7c3b925836040518082815260200191505060405180910390a3505050565b600073ffffffffffffffffffffffffffffffffffffffff168373ffffffffffffffffffffffffffffffffffffffff1614156121dd576040517f08c379a0000000000000000000000000000000000000000000000000000000008152600401808060200182810382526025815260200180612f9e6025913960400191505060405180910390fd5b600073ffffffffffffffffffffffffffffffffffffffff168273ffffffffffffffffffffffffffffffffffffffff161415612263576040517f08c379a0000000000000000000000000000000000000000000000000000000008152600401808060200182810382526023815260200180612e6b6023913960400191505060405180910390fd5b6122cf81604051806060016040528060268152602001612ef860269139600260008773ffffffffffffffffffffffffffffffffffffffff1673ffffffffffffffffffffffffffffffffffffffff168152602001908152602001600020546124119092919063ffffffff16565b600260008573ffffffffffffffffffffffffffffffffffffffff1673ffffffffffffffffffffffffffffffffffffffff1681526020019081526020016000208190555061236481600260008573ffffffffffffffffffffffffffffffffffffffff1673ffffffffffffffffffffffffffffffffffffffff168152602001908152602001600020546124d190919063ffffffff16565b600260008473ffffffffffffffffffffffffffffffffffffffff1673ffffffffffffffffffffffffffffffffffffffff168152602001908152602001600020819055508173ffffffffffffffffffffffffffffffffffffffff168373ffffffffffffffffffffffffffffffffffffffff167fddf252ad1be2c89b69c2b068fc378daa952ba7f163c4a11628f55a4df523b3ef836040518082815260200191505060405180910390a3505050565b60008383111582906124be576040517f08c379a00000000000000000000000000000000000000000000000000000000081526004018080602001828103825283818151815260200191508051906020019080838360005b83811015612483578082015181840152602081019050612468565b50505050905090810190601f1680156124b05780820380516001836020036101000a031916815260200191505b509250505060405180910390fd5b5060008385039050809150509392505050565b60008082840190508381101561254f576040517f08c379a000000000000000000000000000000000000000000000000000000000815260040180806020018281038252601b8152602001807f536166654d6174683a206164646974696f6e206f766572666c6f77000000000081525060200191505060405180910390fd5b8091505092915050565b60008083141561256c57600090506125d9565b600082840290508284828161257d57fe5b04146125d4576040517f08c379a0000000000000000000000000000000000000000000000000000000008152600401808060200182810382526021815260200180612f556021913960400191505060405180910390fd5b809150505b92915050565b60006006836040518082805190602001908083835b6020831061261757805182526020820191506020810190506020830392506125f4565b6001836020036101000a038019825116818451168082178552505050505050905001915050908152602001604051809103902054905061267e826005838154811061265e57fe5b9060005260206000209060050201600401546124d190919063ffffffff16565b6005828154811061268b57fe5b906000526020600020906005020160040181905550612758826000803373ffffffffffffffffffffffffffffffffffffffff1673ffffffffffffffffffffffffffffffffffffffff168152602001908152602001600020856040518082805190602001908083835b6020831061271657805182526020820191506020810190506020830392506126f3565b6001836020036101000a038019825116818451168082178552505050505050905001915050908152602001604051809103902054612d7b90919063ffffffff16565b6000803373ffffffffffffffffffffffffffffffffffffffff1673ffffffffffffffffffffffffffffffffffffffff168152602001908152602001600020846040518082805190602001908083835b602083106127ca57805182526020820191506020810190506020830392506127a7565b6001836020036101000a0380198251168184511680821785525050505050509050019150509081526020016040518091039020819055507fb5f64c4ce4fc5a7820a7b00d6d064389da9637db019663e394fcbefcd72eb958333085604051808473ffffffffffffffffffffffffffffffffffffffff1673ffffffffffffffffffffffffffffffffffffffff1681526020018373ffffffffffffffffffffffffffffffffffffffff1673ffffffffffffffffffffffffffffffffffffffff16815260200180602001828103825283818151815260200191508051906020019080838360005b838110156128c95780820151818401526020810190506128ae565b50505050905090810190601f1680156128f65780820380516001836020036101000a031916815260200191505b5094505050505060405180910390a1505050565b60006006836040518082805190602001908083835b60208310612942578051825260208201915060208101905060208303925061291f565b6001836020036101000a03801982511681845116808217855250505050505090500191505090815260200160405180910390205490506129a9826005838154811061298957fe5b906000526020600020906005020160040154612d7b90919063ffffffff16565b600582815481106129b657fe5b906000526020600020906005020160040181905550612a83826000803373ffffffffffffffffffffffffffffffffffffffff1673ffffffffffffffffffffffffffffffffffffffff168152602001908152602001600020856040518082805190602001908083835b60208310612a415780518252602082019150602081019050602083039250612a1e565b6001836020036101000a0380198251168184511680821785525050505050509050019150509081526020016040518091039020546124d190919063ffffffff16565b6000803373ffffffffffffffffffffffffffffffffffffffff1673ffffffffffffffffffffffffffffffffffffffff168152602001908152602001600020846040518082805190602001908083835b60208310612af55780518252602082019150602081019050602083039250612ad2565b6001836020036101000a0380198251168184511680821785525050505050509050019150509081526020016040518091039020819055507fb5f64c4ce4fc5a7820a7b00d6d064389da9637db019663e394fcbefcd72eb958303385604051808473ffffffffffffffffffffffffffffffffffffffff1673ffffffffffffffffffffffffffffffffffffffff1681526020018373ffffffffffffffffffffffffffffffffffffffff1673ffffffffffffffffffffffffffffffffffffffff16815260200180602001828103825283818151815260200191508051906020019080838360005b83811015612bf4578082015181840152602081019050612bd9565b50505050905090810190601f168015612c215780820380516001836020036101000a031916815260200191505b5094505050505060405180910390a1505050565b600073ffffffffffffffffffffffffffffffffffffffff168173ffffffffffffffffffffffffffffffffffffffff161415612cbb576040517f08c379a0000000000000000000000000000000000000000000000000000000008152600401808060200182810382526026815260200180612eb06026913960400191505060405180910390fd5b8073ffffffffffffffffffffffffffffffffffffffff16600160009054906101000a900473ffffffffffffffffffffffffffffffffffffffff1673ffffffffffffffffffffffffffffffffffffffff167f8be0079c531659141344cd1fd0a4f28419497f9722a3daafe3b4186f6b6457e060405160405180910390a380600160006101000a81548173ffffffffffffffffffffffffffffffffffffffff021916908373ffffffffffffffffffffffffffffffffffffffff16021790555050565b6000612dbd83836040518060400160405280601e81526020017f536166654d6174683a207375627472616374696f6e206f766572666c6f770000815250612411565b905092915050565b828054600181600116156101000203166002900490600052602060002090601f016020900481019282601f10612e0657805160ff1916838001178555612e34565b82800160010185558215612e34579182015b82811115612e33578251825591602001919060010190612e18565b5b509050612e419190612e45565b5090565b612e6791905b80821115612e63576000816000905550600101612e4b565b5090565b9056fe45524332303a207472616e7366657220746f20746865207a65726f20616464726573734d61726b657420494e464f3a20496e666f726d6174696f6e206e6f7420666f756e644f776e61626c653a206e6577206f776e657220697320746865207a65726f206164647265737345524332303a20617070726f766520746f20746865207a65726f206164647265737345524332303a207472616e7366657220616d6f756e7420657863656564732062616c616e63654552524f523a20746865206e756d626572206f662073686172657320646f6573206e6f74206d6174636820746865206465636c61726564536166654d6174683a206d756c7469706c69636174696f6e206f766572666c6f7745524332303a207472616e7366657220616d6f756e74206578636565647320616c6c6f77616e636545524332303a207472616e736665722066726f6d20746865207a65726f206164647265737345524332303a20617070726f76652066726f6d20746865207a65726f206164647265737345524332303a2064656372656173656420616c6c6f77616e63652062656c6f77207a65726fa265627a7a72315820ce631eeaabc28f5529dd78382639aeff744e2619b7bcb61a2e017949234c871f64736f6c634300050c0032",
  "source": "pragma solidity >=0.4.21 < 0.7.0;\r\nimport \"./../node_modules/@openzeppelin/contracts/ownership/Ownable.sol\";\r\nimport \"./../node_modules/@openzeppelin/contracts/token/ERC20/ERC20.sol\";\r\nimport \"./../node_modules/@openzeppelin/contracts/math/SafeMath.sol\";\r\nimport \"./Traiders.sol\";\r\n\r\ncontract Market is Traiders, Ownable, ERC20 {\r\n\r\n     using SafeMath for uint256;\r\n     using SafeMath for uint32;\r\n     using SafeMath for uint16;\r\n\r\n     event NewShare(string name);\r\n     event TransferShare(address _from, address _to, string _nameShare);\r\n\r\n     struct Share {\r\n        string name;\r\n        string descriptionShare;\r\n        uint priceShare;\r\n        uint totalCountShares;\r\n        uint availableQuantityShares;\r\n     }\r\n\r\n     Share[] public shares;\r\n     mapping(string => uint) public indexShareArray;\r\n     \r\n     modifier getShareInfo(string memory _nameShare) {\r\n       require(address(indexShareArray[_nameShare]) != address(0), \"Market INFO: Information not found\");\r\n     _;\r\n    }\r\n\r\n     function createShareMarket(string memory _name, string memory _description) public {\r\n         uint index = shares.push(Share(_name, _description, 1, 100, 0)) - 1;\r\n         indexShareArray[_name] = index;\r\n         emit NewShare(_name);\r\n     }\r\n\r\n    function getPrice(string memory _name) public view getShareInfo(_name) returns(uint) {\r\n      uint index = indexShareArray[_name];\r\n      return shares[index].priceShare;\r\n     }\r\n\r\n    function getDescriptionShare(string memory _name) public view getShareInfo(_name) returns (string memory) {\r\n      uint index = indexShareArray[_name];\r\n      return shares[index].descriptionShare;\r\n     }\r\n\r\n    function getAvailableQuantityShares(string memory _name) public view getShareInfo(_name) returns(uint) {\r\n      uint index = indexShareArray[_name];\r\n      return shares[index].availableQuantityShares;\r\n     }\r\n\r\n    function _transferShareToTraider(string memory _nameShare, uint countShare) private {\r\n        uint index = indexShareArray[_nameShare];\r\n        shares[index].availableQuantityShares = shares[index].availableQuantityShares.sub(countShare);\r\n        traiderCountShare[msg.sender][_nameShare] = traiderCountShare[msg.sender][_nameShare].add(countShare);\r\n        emit TransferShare(address (this), msg.sender,_nameShare);\r\n    }\r\n\r\n    function _transferShareFromTraider(string memory _nameShare, uint countShare) private {\r\n        uint index = indexShareArray[_nameShare];\r\n        shares[index].availableQuantityShares = shares[index].availableQuantityShares.add(countShare);\r\n        traiderCountShare[msg.sender][_nameShare] = traiderCountShare[msg.sender][_nameShare].sub(countShare);\r\n        emit TransferShare(msg.sender, address (this),_nameShare);\r\n     }\r\n\r\n     function traiderBuyShare(string memory _nameShare, uint _countShare) public payable {\r\n        require(getAvailableQuantityShares(_nameShare)>=_countShare, \"ERROR: the number of shares does not match the declared\");\r\n        require(getPrice(_nameShare).mul(_countShare) <= balanceOf(msg.sender), \"ERROR: the number of shares does not match the declared\");\r\n        uint totalPrice = getPrice(_nameShare).mul(_countShare);\r\n        transfer(address(this), totalPrice);\r\n        _transferShareToTraider(_nameShare, _countShare);\r\n     }\r\n\r\n     function traiderSellShare(string memory _nameShare, uint _countShare) public payable {\r\n        require(traiderCountShare[msg.sender][_nameShare] >= _countShare, \"ERROR: the number of shares does not match the declared\");\r\n        uint totalPrice = getPrice(_nameShare).mul(_countShare);\r\n        transfer(msg.sender, totalPrice);\r\n        _transferShareFromTraider(_nameShare, _countShare);\r\n     }\r\n}",
  "sourcePath": "C:/Users/ts/Desktop/projects/Solidity/stock market/contracts/Market.sol",
  "compiler": {
    "name": "solc",
    "version": "0.5.12+commit.7709ece9.Emscripten.clang"
  },
  "schemaVersion": "3.0.18",
  "updatedAt": "2019-11-08T17:07:06.858Z",
  "devdoc": {
    "methods": {
      "allowance(address,address)": {
        "details": "See {IERC20-allowance}."
      },
      "approve(address,uint256)": {
        "details": "See {IERC20-approve}.     * Requirements:     * - `spender` cannot be the zero address."
      },
      "balanceOf(address)": {
        "details": "See {IERC20-balanceOf}."
      },
      "decreaseAllowance(address,uint256)": {
        "details": "Atomically decreases the allowance granted to `spender` by the caller.     * This is an alternative to {approve} that can be used as a mitigation for problems described in {IERC20-approve}.     * Emits an {Approval} event indicating the updated allowance.     * Requirements:     * - `spender` cannot be the zero address. - `spender` must have allowance for the caller of at least `subtractedValue`."
      },
      "increaseAllowance(address,uint256)": {
        "details": "Atomically increases the allowance granted to `spender` by the caller.     * This is an alternative to {approve} that can be used as a mitigation for problems described in {IERC20-approve}.     * Emits an {Approval} event indicating the updated allowance.     * Requirements:     * - `spender` cannot be the zero address."
      },
      "isOwner()": {
        "details": "Returns true if the caller is the current owner."
      },
      "owner()": {
        "details": "Returns the address of the current owner."
      },
      "renounceOwnership()": {
        "details": "Leaves the contract without owner. It will not be possible to call `onlyOwner` functions anymore. Can only be called by the current owner.     * NOTE: Renouncing ownership will leave the contract without an owner, thereby removing any functionality that is only available to the owner."
      },
      "totalSupply()": {
        "details": "See {IERC20-totalSupply}."
      },
      "transfer(address,uint256)": {
        "details": "See {IERC20-transfer}.     * Requirements:     * - `recipient` cannot be the zero address. - the caller must have a balance of at least `amount`."
      },
      "transferFrom(address,address,uint256)": {
        "details": "See {IERC20-transferFrom}.     * Emits an {Approval} event indicating the updated allowance. This is not required by the EIP. See the note at the beginning of {ERC20};     * Requirements: - `sender` and `recipient` cannot be the zero address. - `sender` must have a balance of at least `amount`. - the caller must have allowance for `sender`'s tokens of at least `amount`."
      },
      "transferOwnership(address)": {
        "details": "Transfers ownership of the contract to a new account (`newOwner`). Can only be called by the current owner."
      }
    }
  },
  "userdoc": {
    "methods": {}
  }
}